S0100000534550342D496F542E73726563BF
S1130000E5C0000004C1000002C1000000C10000FE
S1130010FEC00000FCC00000FAC00000F8C00000F0
S1130020F6C00000F4C00000F2C00000F0C0000000
S1130030DCC30000ECC00000EAC00000E8C000001F
S1130040E6C00000E4C00000E2C00000E0C0000020
S1130050DEC000000C94C01ADAC00000D8C0000052
S11300600C946B260C944C220C949E22D0C000005D
S1130070CEC00000CCC00000CAC00000C8C0000050
S1130080C6C00000C4C00000C2C00000C0C0000060
S11300900C94E2220C943423BAC000000C94592925
S11300A0B6C00000B4C00000B2C00000B0C0000080
S11300B0AEC00000ACC00000AAC00000A8C0000090
S11300C0A6C00000A4C00000A2C000000C947823C5
S11300D00C94CA239CC000000C940E240C9460243D
S11300E096C00000F916F916F916301738174D178F
S11300F0F916F916301738177B29EB29EB29EB2968
S1130100EB29EB29EB29EB297B29EB29EB29EB29BB
S1130110EB29EB29EB29EB297D29EB29EB29EB29A9
S1130120EB29EB29EB29EB29EB29EB29EB29EB292B
S1130130EB29EB29EB29EB297D29EB29EB29EB2989
S1130140EB29EB29EB29EB29EB29EB29EB29EB290B
S1130150EB29EB29EB29EB29E729EB29EB29EB29FF
S1130160EB29EB29EB29EB29B229EB29EB29EB2924
S1130170EB29EB29EB29EB29EB29EB29EB29EB29DB
S1130180EB29EB29EB29EB29A629EB29EB29EB2910
S1130190EB29EB29EB29EB29CA290E94490B809111
S11301A0A915823008F05BD20E947617F6CFCF9360
S11301B0DF931F92CDB7DEB7CE0101960E9476146D
S11301C049810E946B160E94C216F6CF11241FBEED
S11301D0CFEFD1E2DEBFCDBF00E00CBF17E0A0E05F
S11301E0B2E0E6E2F2E600E00BBF02C007900D9237
S11301F0AC39B107D9F727E1ACE9B7E001C01D92EA
S1130200A43CB207E1F70E94AD190C941131F8CE69
S1130210E8EAF7E0ACEAB7E0B183A0831382128284
S1130220E4E5F5E1F093A707E093A60713821282B1
S11302301182108288EA9DE013969C938E93129704
S1130240ED93FC939093A3078093A2079093A50743
S11302508093A40780E090E890939D0780939C0787
S11302600895CF93DF93EC01A8EAB7E001C0DF0162
S1130270ED91FC911197EC17FD07C8F312968D913F
S11302809C9113979D01280F391FC217D30749F476
S11302902A813B81820F931F13969C938E9312970E
S11302A0ED018A819B819E01280F391FE217F30714
S11302B0C1F42091A6073091A707E217F30771F064
S11302C022813381820F931F9B838A83ED91FC915A
S11302D01197808191819983888305C0398328830C
S11302E002C0F983E883CA17DB0711F0CD93DC93CE
S11302F0DF91CF910895EF92FF920F931F93CF93C5
S1130300DF938C010E94940C8091A6079091A7071B
S1130310892B09F47DDF80919C0790919D078023B0
S11303209123892B09F076C00115110549F0C80104
S113033004960817190718F000E010E001C08C01BA
S11303400115110509F469C08091A4079091A507CE
S11303508017910708F464C0C091A807D091A90739
S1130360E8EAF7E002C0FE01EC018A819B81801774
S1130370910720F4888199810097A9F78091A607B5
S11303809091A707C817D90709F44DC0E080F18000
S113039084E0E80EF11C88819981918380832A810D
S11303A03B81201B310B2930310548F0CE01800FF1
S11303B0911FFC01338322831B830A8352DF2A812A
S11303C03B818091A4079091A507821B930B909386
S11303D0A5078093A4074091A2075091A30784170F
S11303E0950720F49093A3078093A20780919C071C
S11303F090919D07282B392B3B832A8319821882DD
S11304008091A0079091A10701969093A1078093F2
S1130410A0070BC0E12CF12C08C0E12CF12C05C085
S1130420E12CF12C02C0E12CF12C0E94D40DE1143A
S1130430F10411F40E948217C701DF91CF911F913B
S11304400F91FF90EF9008950F931F93CF93DF9335
S1130450009791F1EC0124974A815B8120919C07DC
S113046030919D07BA0162237323672B29F16881B8
S11304707981672B09F520953095242335233B8317
S11304802A830E94940C8A819B812091A407309135
S1130490A507820F931F9093A5078093A407CE010D
S11304A0E0DE80919E0790919F07019690939F07AD
S11304B080939E070E94D40DDF91CF911F910F91DD
S11304C00895FC010396928381834FEF5FEFBA0195
S11304D04383548365837683908787839287818758
S11304E010820895FC011386128608950F931F93BA
S11304F0CF93DF93EB01088119812A813B810F3F60
S11305004FEF14072407340721F4FC01A185B285B9
S113051011C0DC01139601C0DF011496ED91FC912A
S1130520159740815181628173810417150726074D
S1130530370790F71496ED91FC911597FD83EC83A2
S1130540D783C683BF83AE831596DC93CE9314976B
S11305509B878A87FC0120812F5F2083DF91CF91C5
S11305601F910F910895CF93DF93FC01A285B3856A
S1130570C481D581868197819F838E83C681D781EB
S1130580848195819D838C8311968D919C91129782
S1130590E817F90731F48681978112969C938E931C
S11305A01197138612868C9181508C938C91DF91D4
S11305B0CF910895A89590EC88E10FB6F894A8958A
S11305C0809360000FBE909360000895FC016083E7
S11305D0319770833197108231971082319720E8D8
S11305E02083319710823197108231971082779748
S11305F040833197508386970895DCDFA0911716C6
S1130600B0911816CD91CDBFDD91DEBFFF91EF9172
S1130610DF91CF91BF91AF919F918F917F916F9116
S11306205F914F913F912F911F910F91FF90EF9008
S1130630DF90CF90BF90AF909F908F907F906F90FE
S11306405F904F903F902F901F900F900CBE0F9093
S11306500BBE0F900FBE0F90089581E008950F9286
S11306600FB6F8940F920BB60F920CB60F921F921E
S113067011242F923F924F925F926F927F928F92AA
S11306809F92AF92BF92CF92DF92EF92FF920F931D
S11306901F932F933F934F935F936F937F938F9306
S11306A09F93AF93BF93CF93DF93EF93FF93A09167
S11306B01716B09118160DB60D920EB60D920E9433
S11306C0300FA0911716B0911816CD91CDBFDD91C2
S11306D0DEBFFF91EF91DF91CF91BF91AF919F91D9
S11306E08F917F916F915F914F913F912F911F91C6
S11306F00F91FF90EF90DF90CF90BF90AF909F90BD
S11307008F907F906F905F904F903F902F901F90AD
S11307100F900CBE0F900BBE0F900FBE0F9008955C
S11307200F920FB6F8940F920BB60F920CB60F926D
S11307301F9211242F923F924F925F926F927F9259
S11307408F929F92AF92BF92CF92DF92EF92FF92DD
S11307500F931F932F933F934F935F936F937F93C5
S11307608F939F93AF93BF93CF93DF93EF93FF93B5
S1130770A0911716B09118160DB60D920EB60D92E3
S113078013BE0E94A80C81110E94300FA09117166D
S1130790B0911816CD91CDBFDD91DEBFFF91EF91E1
S11307A0DF91CF91BF91AF919F918F917F916F9185
S11307B05F914F913F912F911F910F91FF90EF9077
S11307C0DF90CF90BF90AF909F908F907F906F906D
S11307D05F904F903F902F901F900F900CBE0F9002
S11307E00BBE0F900FBE0F9008959ADF18950FB6A9
S11307F0F8940F92FC01868D811102C081E001C042
S113080080E00F900FBE08950FB6F8940F92FC018C
S1130810268D878D281302C081E001C080E00F90EF
S11308200FBE08950F931F93CF93DF93EC01042F12
S11308301E8D48A141110CC088819981892B09F032
S113084042C08C819D810E9441111D821C8242C044
S1130850011117C050E08A819B810E948A2D28A132
S11308608A819B81820F911D9B838A832C813D8188
S11308708217930750F1888199819B838A8380E052
S113088029C050E08E819F810E948A2D88A190E02A
S11308909195819591092E813F81280F391F3F83BE
S11308A02E83488159812417350730F42C813D81EA
S11308B0820F931F9F838E83023049F4112349F0E2
S11308C0115080E007C080E005C080E003C080E0F4
S11308D001C080E01F5F1E8FDF91CF911F910F91A8
S11308E00895FC0140A14423A9F050E026813781FA
S11308F0240F351F37832683848195812817390770
S113090020F08081918197838683CB0166817781F2
S11309100C948A2D08951F93CF93DF93EC010FB6A7
S1130920F8940F921AA10BC08B89882351F0CE0141
S113093043960E94EE0F81110E942A111150111644
S11309409CF38FEF8AA30F900FBE0FB6F8940F920B
S113095019A10BC08885882351F0CE0108960E9406
S1130960EE0F81110E942A11115011169CF38FEF82
S113097089A30F900FBEDF91CF911F910895CF935C
S1130980DF93EC010FB6F8940F92E881F9818F8D13
S113099028A190E030E0829FA001839F500D929F98
S11309A0500D11244E0F5F1F5D834C831E8EFB83FD
S11309B0EA830197289FA001299F500D389F500D6D
S11309C01124CF01840F951F9F838E838FEF89A3FA
S11309D08AA361110BC08885882371F0CE01089623
S11309E00E94EE0F882341F03ADE06C0CE0108963D
S11309F068DDCE01439665DD0F900FBE81E0DF9187
S1130A00CF9108950F931F93F801611103C01183CF
S1130A10008302C051834083878F60A361E0CF01CC
S1130A20AEDF1F910F910895DF92EF92FF920F9323
S1130A301F93CF93DF93F82EE62ED42E869FC0010A
S1130A401124839658DCEC01009741F08C012D2D84
S1130A50AC014D5D5F4F6E2D8F2DD4DFCE01DF9144
S1130A60CF911F910F91FF90EF90DF900895CF9257
S1130A70DF92EF92FF920F931F93CF93DF93CDB743
S1130A80DEB729970FB6F894DEBF0FBECDBF7C0149
S1130A906B012E833F834887598710E00FB6F89483
S1130AA00F92F701968D878D981710F00230B1F4EC
S1130AB0402FB601C701B6DEF7019389992341F0AF
S1130AC0C70143960E94EE0F882321F0C8DD02C0BF
S1130AD08111C5DD0F900FBE81E04CC08E819F81D6
S1130AE0A885B985892B8A2B8B2B21F40F900FBEF7
S1130AF080E040C0111105C0CE0101960E94B310E0
S1130B0011E00F900FBE10D70FB6F8940F92F701B3
S1130B1081A18F3F09F411A2F70182A18F3F09F44B
S1130B2012A20F900FBEBE016A5F7F4FCE010196E5
S1130B300E94C410811119C0C70166DE882381F0A8
S1130B404E815F8168857985C70108960E94950F5B
S1130B50C701E1DE0E94D40D8111A0CF80DD9ECFBC
S1130B60C701D9DE0E94D40D99CFC701D4DE0E94FB
S1130B70D40D80E029960FB6F894DEBF0FBECDBF2A
S1130B80DF91CF911F910F91FF90EF90DF90CF9065
S1130B9008950F93009769F0FC0115821482118265
S1130BA01082168200E020E030E0A90160E070E0ED
S1130BB05EDF0F910895CF93DF93482F60E081E0CB
S1130BC033DFEC01E6DFCE01DF91CF910895EF92A0
S1130BD0FF920F931F93CF93DF938A01FC01568DED
S1130BE0378D531710F02230F9F4422F7801EC01BD
S1130BF01AA18E8DCE0116DE1F3F81F48B898823C6
S1130C00A9F0CE0143960E94EE0F882389F0E114E7
S1130C10F10481F081E0F70180830DC0FF24F39497
S1130C20F10EFAA281E007C080E005C081E003C0B4
S1130C3081E001C081E0DF91CF911F910F91FF907E
S1130C40EF900895CF92DF92EF92FF920F931F934C
S1130C50CF93DF93CDB7DEB729970FB6F894DEBFF5
S1130C600FBECDBF8C016B012E833F83488759870C
S1130C70E12C0FB6F8940F92F801F68CFF2099F04E
S1130C80B601C8012EDEFA94F801F68E8085882319
S1130C9031F0C80108960E94EE0F8111E0DC0F903C
S1130CA00FBE81E04FC08E819F81A885B985892BB5
S1130CB08A2B8B2B21F40F900FBE80E043C0E110F0
S1130CC006C0CE0101960E94B310EE24E3940F9067
S1130CD00FBE2AD60FB6F8940F92F80181A18F3F68
S1130CE009F411A2F80182A18F3F09F412A20F9016
S1130CF00FBEBE016A5F7F4FCE0101960E94C410F1
S1130D00811117C0C80173DD882379F04E815F819A
S1130D1068857985C80143960E94950FC801FBDD5B
S1130D2043D78111A6CF9BDCA4CFC801F4DD3CD707
S1130D30A0CFC801F0DD38D7C80159DD882309F4F4
S1130D4098CF80E029960FB6F894DEBF0FBECDBFD2
S1130D50DF91CF911F910F91FF90EF90DF90CF9093
S1130D600895CF93DF93EC010FB6F8940F9289A105
S1130D708F3F09F419A28AA18F3F09F41AA20F9098
S1130D800FBE8E8D811104C0CE0143960E94AC0F1C
S1130D90CE01C1DDDF91CF910895FC0144815581DD
S1130DA022813381240F351F80819181B901681B11
S1130DB0790BCB016417750710F0841B950B08950C
S1130DC00F93FC018FE0DF011D928A95E9F7758787
S1130DD06487558344833783268306870F91089558
S1130DE0AF92BF92CF92DF92EF92FF920F931F9335
S1130DF0CF93DF936C015B017A01FC01C281D38143
S1130E00048115810C1B1D0B4017510708F48A013E
S1130E10F60184859585A801B5018C0F9D1F0E945C
S1130E208A2D0E151F0558F4A701401B510BB5015F
S1130E30600F711FF601848595850E948A2DCE016D
S1130E408E0D9F1DF601248135818217930710F0C2
S1130E50821B930BF60193838283C701DF91CF91A9
S1130E601F910F91FF90EF90DF90CF90BF90AF90C4
S1130E700895CF92DF92EF92FF920F931F93CF9337
S1130E80DF931F921F92CDB7DEB77C016B015A83AB
S1130E90498321153105C1F0FC01868580FD08C018
S1130EA04217530708F49A013A83298381E00FC05B
S1130EB02017310758F042E050E0BE016F5F7F4FCA
S1130EC0C7018EDF81E003C080E001C080E0882399
S1130ED031F049815A81B601C70182DF02C080E046
S1130EE090E00F900F90DF91CF911F910F91FF90A1
S1130EF0EF90DF90CF900895AF92BF92CF92DF92A0
S1130F00EF92FF920F931F93CF93DF937C015B01CA
S1130F10E9014217530708F4EA01209781F1F70128
S1130F200081118184819581801B910B6E018C1746
S1130F309D0708F46C01F70164857585600F711FC6
S1130F40A601C5010E948A2DCC16DD0658F4AE0117
S1130F504C195D09F70164857585C5018C0D9D1DCE
S1130F600E948A2D0C0F1D1FF7018481958108179B
S1130F70190710F0081B190BF70111830083CE0128
S1130F80DF91CF911F910F91FF90EF90DF90CF9061
S1130F90BF90AF9008956F927F928F929F92AF927D
S1130FA0BF92CF92DF92EF92FF920F931F93CF9352
S1130FB0DF931F921F92CDB7DEB76C014B015A012C
S1130FC0790101151105B1F0FC0160807180A8015F
S1130FD0BE016F5F7F4F90DF89819A81E01AF10A29
S1130FE0A816B90630F4F60171826082A12CB12CE6
S1130FF001C05C019701A501B401C6017DDF0F901A
S11310000F90DF91CF911F910F91FF90EF90DF90A0
S1131010CF90BF90AF909F908F907F906F900895E6
S1131020CF92DF92EF92FF920F93CF93DF93EC0175
S11310306B01413011F401E001C000E0C114D1049E
S113104019F4CC24C394D12CCE014096C817D907E7
S113105020F4219650D97C0102C0E12CF12CE1143A
S1131060F10439F09601AE01B701615F7F4FC7010A
S1131070A7DEC701DF91CF910F91FF90EF90DF9032
S1131080CF9008950F930FB6F8940F92FC0120852A
S11310903185232B71F422853385232B61F426813A
S11310A037814481558164857585068589DE81E0B3
S11310B003C080E001C080E00F900FBE0F9108953F
S11310C0FC012481358180819181820F931F4281AB
S11310D05381841B950B01978217930710F0821B91
S11310E0930B08952F923F924F925F926F927F924B
S11310F08F929F92AF92BF92CF92DF92EF92FF9224
S11311000F931F93CF93DF93CDB7DEB72B970FB613
S1131110F894DEBF0FBECDBF4C017B876A871A01EE
S11311200E831F8328873987FC0184819581019769
S1131130268520FF0CC02A01F2E04F0E511C8415B5
S1131140950558F41E821F821886198606C08417D6
S1131150950710F02A0101C02C018E819F81A8857A
S1131160B985892B8A2B8B2B09F436C0CE010196C5
S1131170E4D70FB6F8940F92C401A2DF3C018415A2
S1131180950538F560E080E090E00E945C140E94D0
S11311902E11F401938782870F900FBEAE80BF801B
S11311A0C884D984E12CF12C00E010E0980140E0DF
S11311B050E0BA0180E00E949C11F401138612866B
S11311C0BE016A5F7F4FCE010196DED7882389F284
S11311D005C00F900FBE02C0612C712C6114710404
S11311E019F4C4016DDF3C0182019301A1016A85F8
S11311F07B85C4013EDE6C01892BE9F0C401CDDDA1
S1131200F4012681378182179307A8F08DD3F40166
S113121080859185892B71F080859185E12CF12C55
S113122000E020E030E0A90160E00E944312F401F4
S113123011861086B9D4C6012B960FB6F894DEBF7A
S11312400FBECDBFDF91CF911F910F91FF90EF9013
S1131250DF90CF90BF90AF909F908F907F906F90D2
S11312605F904F903F902F900895AF92BF92CF928E
S1131270DF92EF92FF920F931F93CF93DF93EC01D2
S11312807B015A0169018E8580FF04C08A010E5FCB
S11312901F4F01C08A01CE0113DF9C01A501B701D4
S11312A0CE01E7DD5C01892BC1F0CE0176DD2E8114
S11312B03F818217930788F088859985892B69F087
S11312C088859985E12CF12C00E020E030E0A9012B
S11312D060E00E943A1319861886C501DF91CF9108
S11312E01F910F91FF90EF90DF90CF90BF90AF9040
S11312F008954F925F926F927F928F929F92AF92D6
S1131300BF92CF92DF92EF92FF920F931F93CF93EE
S1131310DF93EC012B013A01580169018E8580FFAE
S113132005C06894882481F8912C02C0812C912CEA
S1131330A114B104C104D10431F10FB6F8940F9291
S1131340CE012BDD7C018816990640F060E080E038
S113135090E00E945C1482D7998788870F900FBE13
S11313608E149F0498F0E12CF12C00E010E0980119
S113137040E050E0BA0180E0DFD719861886CE013C
S11313800CDD7C0103C0CE0108DD7C018E149F04BA
S1131390E8F484019701A301B201CE01FCDD6C01E4
S11313A0892BB1F0C1D28A859B85892B69F08A8506
S11313B09B85E12CF12C00E020E030E0A90160E005
S11313C00E9443121B861A86EFD302C0C12CD12C73
S11313D0C601DF91CF911F910F91FF90EF90DF90A5
S11313E0CF90BF90AF909F908F907F906F905F90C1
S11313F04F900895E0919115F0919215808181119B
S11314000CC08FEF9FEFDC0180935B1590935C150C
S1131410A0935D15B0935E150895E0919115F09138
S113142092150780F085E02D80819181A281B3819E
S113143080935B1590935C15A0935D15B0935E1536
S11314400895CF93DF93EC018B8D9C8D0E94240231
S1131450CE010E942402DF91CF9108954F925F92B2
S11314606F927F928F929F92AF92BF92CF92DF92B0
S1131470EF92FF920F93CF93DF932C015B014A010C
S11314803901E60165EA70E08B8D9C8D0E94932DF5
S11314908B8D9C8D21E0821A9108880E991EA114CF
S11314A0B10489F415C0822F90E0F501E80FF91F0B
S11314B03081DE01A80FB91F5D963C93808188239B
S11314C029F02F5F01C020E0203168F31CA601C081
S11314D01D8E0A3008F009E00A8F0DA71EA6CE0162
S11314E0029600D8CE010E960E947202DB87CA874C
S11314F08AE090E0A0E0B0E0801B9109A109B10965
S11315008E879F87A88BB98BDF8BCE8B84E0FE01FF
S1131510BF96DF011D928A95E9F71BAAA301B201C8
S1131520C40154D899838883E114F10419F0F701B4
S1131530D183C083DF91CF910F91FF90EF90DF9023
S1131540CF90BF90AF909F908F907F906F905F905F
S11315504F900895CF93C0E009C02BE0C29FC00113
S1131560112487559A4E0E946102CF5FCA30A8F3B6
S11315708EE995E10E94610283E995E10E9461028E
S113158084E895E10E94610289E795E10E94610285
S11315908DE695E10E9461028EE995E190939215A2
S11315A08093911583E995E19093901580938F151D
S11315B0CF910895CF93DF93EC010FB6F8940F9277
S11315C080916C158F5F80936C15809117169091A4
S11315D01816892B51F4D0931816C09317168091BE
S11315E06C15813091F4B6DF10C0809166158111BD
S11315F00CC0E0911716F0911816928D8A8D8917F8
S113160020F0D0931816C093171680915F158F5F42
S113161080935F15EA8D809167158E1710F4E0931F
S113162067158BE08E9FF0011124E755FA4E018077
S1131630F281E02DFF83EE83268137813987288765
S1131640A681B7819E012E5F3F4F15963C932E9342
S1131650149737832683EA8D8E9FF0011124E75572
S1131660FA4EFD87EC8780818F5F80830F900FBED9
S113167080916615882351F0E0911716F0911816A1
S1131680928D8A8D981710F40E942F03DF91CF91C9
S11316900895CF93DF931BC00FB6F8940F92E09197
S11316A08015F0918115C085D185CE0102960E94E6
S11316B0B30280916C15815080936C1580917815DC
S11316C08150809378150F900FBECE01BADE8091C1
S11316D078158111E1CFDF91CF9108958F929F9278
S11316E0AF92BF92CF92DF92EF92FF92CF93DF93AC
S11316F06B017C01C42F8090681590906915A090AF
S11317006A15B0906B158091171690911816029671
S11317100E94B3028FEFC816D806E806F806B1F5A2
S1131720CC23A1F1EDE6F5E1A181B281C0911716B8
S1131730D0911816BF83AE83C0911716D091181696
S113174016968D919C911797998788871696CD91B7
S1131750DC911797809117169091181602969D8325
S11317608C838091171690911816029617969C9365
S11317708E931697A0911716B09118161D96FC9388
S1131780EE931C9780818F5F80833FC0C80CD91C67
S1131790EA1CFB1CE0911716F0911816C282D38242
S11317A0E482F582C814D904EA04FB0468F4609165
S11317B017167091181680918F15909190156E5F81
S11317C07F4F0E94760221C06091171670911816FF
S11317D080919115909192156E5F7F4F0E947602D1
S11317E080915B1590915C15A0915D15B0915E158B
S11317F0C816D906EA06FB0640F4C0925B15D092DF
S11318005C15E0925D15F0925E15DF91CF91FF902B
S1131810EF90DF90CF90BF90AF909F908F900895FE
S11318202F923F924F925F926F927F928F929F92EC
S1131830AF92BF92CF92DF92EF92FF920F93CF932A
S1131840DF933C011B014A012901CA010E947B016B
S11318506C01892B71F084E390E00E947B01EC0120
S1131860892B19F0DC8ECB8E06C0C6010E9424029F
S113187002C0C0E0D0E0209761F0A12CB12C6E0131
S11318809201A401B101C301E9DDCE0193DE81E03F
S113189001C08FEFDF91CF910F91FF90EF90DF9018
S11318A0CF90BF90AF909F908F907F906F905F90FC
S11318B04F903F902F900895EF92FF920F930F2E29
S11318C0F9E5EF2EF5E1FF2EF02D00E020E030E009
S11318D040EC50E06FE672E08DEC90E0A1DF8130E7
S11318E011F40E9400158130C9F4F8948FEF9FEF32
S11318F0DC0180935B1590935C15A0935D15B09308
S11319005E1581E080936615109268151092691532
S113191010926A1510926B150E94FD0280910602C6
S11319200F91FF90EF900895809158158F5F8093E9
S1131930581508950FB6F8940F9260916815709138
S1131940691580916A1590916B150F900FBE0895DB
S1131950CF92DF92EF92FF92CF93DF93809158154D
S1131960811105C1C0906815D0906915E0906A1581
S1131970F0906B158FEFC81AD80AE80AF80AC092DB
S11319806815D0926915E0926A15F0926B15C1142E
S1131990D104E104F104B1F4809191159091921570
S11319A020918F15309190153093921520939115B5
S11319B09093901580938F15809160158F5F80931D
S11319C0601518DD80915B1590915C15A0915D15F3
S11319D0B0915E15C816D906EA06FB0620F480E02D
S11319E0B2C081E001C080E0E0919115F0919215C0
S11319F0908191110CC04FEF5FEFBA0140935B15DA
S1131A0050935C1560935D1570935E159CC0E091D6
S1131A109115F09192150780F085E02D0084F185F1
S1131A20E02D4281538164817581C416D506E60692
S1131A30F70648F440935B1550935C1560935D156D
S1131A4070935E1580C0A485B585C681D781208535
S1131A5031853F832E83C085D185268137813D839F
S1131A602C8311964D915C9112979F012E5F3F4FED
S1131A704217530731F44085518512965C934E9377
S1131A801197158614869C9191509C93A08DB18DCD
S1131A90109709F1C289D389448955895F834E839C
S1131AA0C489D589428953895D834C8311966D918C
S1131AB07C911297AF01425F5F4F6417750731F451
S1131AC04489558912965C934E931197118E108E0A
S1131AD09C9191509C93A28D909167159A1710F444
S1131AE0A09367159BE09A9FD0011124A755BA4E85
S1131AF011960D90BC91A02DB783A68316964D9197
S1131B005C911797518740871696CD91DC91179772
S1131B103D832C8317963C932E931697A28D9A9F00
S1131B20D0011124A755BA4EB587A4879C919F5F15
S1131B309C93228DE0911716F0911816928D291717
S1131B4008F04FCF51CFE0911716F0911816E28D9F
S1131B509BE0E99FF0011124E755FA4E9081923001
S1131B6008F081E090916115911116C016C0809122
S1131B70621590916315A0916415B0916515019655
S1131B80A11DB11D8093621590936315A0936415F4
S1131B90B093651580E001C081E0DF91CF91FF90A3
S1131BA0EF90DF90CF900895CF92DF92EF92FF9263
S1131BB0CF93DF930FB6F8940F928091581581500C
S1131BC080935815809158158111BEC080916C1571
S1131BD0811188C0BCC0E0918B15F0918C150084F4
S1131BE0F185E02DA08DB18DC289D3898489958931
S1131BF09F838E83C489D589828993899D838C83AD
S1131C0011962D913C911297CF010E962817390702
S1131C1031F48489958912969C938E931197118E31
S1131C20108E8C9181508C93A485B585C681D78103
S1131C30808591859F838E83C085D1858681978198
S1131C409D838C8311968D919C9112979F012E5F99
S1131C503F4F8217930731F48085918512969C93A8
S1131C608E931197158614868C9181508C93A28D36
S1131C70809167158A1710F4A09367158BE08A9FEB
S1131C80D0011124A755BA4E11960D90BC91A02DE8
S1131C90B783A68316964D915C9117975187408719
S1131CA01696CD91DC9117973D832C8317963C9320
S1131CB02E931697A28D8A9FD0011124A755BA4E50
S1131CC0B587A4878C918F5F8C93928DA091171602
S1131CD0B09118165A968C91981730F081E0809341
S1131CE0611502C0E0E0F0E080918415811173CFAA
S1131CF0EF2B09F07FDBC0906215D0906315E09064
S1131D006415F0906515C114D104E104F104A1F047
S1131D101FDE882319F081E08093611581E0C81AE1
S1131D20D108E108F108A1F7109262151092631529
S1131D30109264151092651580916115882331F015
S1131D400E942F0381E003C080E001C080E00F9077
S1131D500FBEDF91CF91FF90EF90DF90CF90089569
S1131D608F929F92AF92BF92CF92DF92EF92FF92A7
S1131D701F93CF93DF93EC016A017B01D5DD809043
S1131D80681590906915A0906A15B0906B158881BC
S1131D909981AA81BB81AC01BD014C0D5D1D6E1DF5
S1131DA07F1D88169906AA06BB0660F448175907D2
S1131DB06A077B0798F484169506A606B70680F092
S1131DC010E013C0481759076A077B0758F08416B8
S1131DD09506A606B70640F010E007C010E005C05F
S1131DE011E003C011E001C011E0488359836A8304
S1131DF07B83112341F0CB01BA01681979098A095F
S1131E009B0940E06BDCD0DE811102C00E942F03ED
S1131E10812FDF91CF911F91FF90EF90DF90CF90B2
S1131E20BF90AF909F908F900895CF92DF92EF92E2
S1131E30FF926B017C01672B682B692B39F074DDF1
S1131E4040E0C701B6014ADCAFDE01C080E0811189
S1131E5002C00E942F03FF90EF90DF90CF9008956F
S1131E6080915815882321F081E0809361150895AD
S1131E7010926115E0911716F091181620813181A6
S1131E80E0911716F0911816838D948D821793079D
S1131E9060F06091171670911816635E7F4F809101
S1131EA01716909118160E948E178091671501C01D
S1131EB08150282F30E09BE0929FF001939FF00D1A
S1131EC01124E755FA4E9081992391F39BE0929F58
S1131ED0A001939F500D1124DF010180F281E02DB8
S1131EE00480F581E02D1296FC93EE9311974455EE
S1131EF05A4EE417F50729F444815581FD015283B4
S1131F0041839BE0929FF001939FF00D1124E755CC
S1131F10FA4E0180F281E02D208531853093181628
S1131F2020931716809367150895CF92DF92EF924E
S1131F30FF926A017B016091171670911816625F17
S1131F407F4F0E94760241E0C701B601C7DBFF90D4
S1131F50EF90DF90CF900895CF93DF93FC01CB01F6
S1131F60BA01A181B281C0911716D0911816BB8B0A
S1131F70AA8BC0911716D091181616964D915C91A4
S1131F8017975D8B4C8B1696CD91DC9117974091EA
S1131F90171650911816425F5F4F5D834C83409132
S1131FA0171650911816425F5F4F17965C934E9325
S1131FB01697A0911716B09118165996FC93EE93A4
S1131FC0589730813F5F3083222319F06FEF7FEF02
S1131FD0CB01422F83DBDF91CF910895CF93DF9321
S1131FE0DC011796ED91FC9118970084F185E02DA2
S1131FF0A08DB18DC289D389848995899F838E836D
S1132000C489D589828993899D838C8311968D9106
S11320109C9112979F01225F3F4F8217930731F4DF
S11320208489958912969C938E931197118E108EA4
S11320308C9181508C9380915815811152C0A48544
S1132040B585C681D781808591859F838E83C08520
S1132050D185868197819D838C8311968D919C91E6
S113206012979F012E5F3F4F8217930731F48085AB
S1132070918512969C938E931197158614868C9154
S113208081508C93A28D809167158A1710F4A093C8
S113209067158BE08A9FD0011124A755BA4E11967B
S11320A00D90BC91A02DB783A68316964D915C919B
S11320B01797518740871696CD91DC9117973D83EA
S11320C02C8317963C932E931697A28D8A9FD0014A
S11320D01124A755BA4EB587A4878C918F5F8C9332
S11320E01CC044E855E1DA011196CD91DC911297B8
S11320F0D38BC28B8E819F81958B848B8E819F81A4
S1132100DC0115963C932E9314973F832E83518FB5
S1132110408FDA018C918F5F8C93928DE09117162A
S1132120F0911816828D891720F481E0809361154F
S113213001C080E0DF91CF9108950FB6F8940F921B
S113214020916015FC012083409168155091691518
S113215060916A1570916B15418352836383748314
S11321600F900FBE089520916015FC0120834091CB
S113217068155091691560916A1570916B154183CA
S113218052836383748308958F929F92AF92BF9218
S1132190CF92DF92EF92FF920F931F93CF93DF932F
S11321A0FB010FB6F8940F92C0906815D090691592
S11321B0E0906A15F0906B15DC0111960D911D915C
S11321C02D913C91149746015701801A910AA20A55
S11321D0B30A40815181628173814F3FBFEF5B0736
S11321E06B077B0739F1EC01B881A0916015BA1730
S11321F059F0C016D106E206F30630F010821182BF
S11322001282138281E017C084169506A606B706CB
S113221058F4481959096A097B0940835183628338
S11322207383A1DF80E007C01082118212821382BF
S113223081E001C080E00F900FBEDF91CF911F912C
S11322400F91FF90EF90DF90CF90BF90AF909F9051
S11322508F90089581E080936115089580911716F9
S113226090911816089580916615882331F0809115
S11322705815811104C082E0089581E0089580E03A
S113228008950F931F93CF93DF93FC01892B09F4D7
S113229049C086A5815086A7228D95A5291709F4E2
S11322A043C0811143C0EF018F010E5F1F4FC8016E
S11322B00E94B302EDA5EA8F8AE090E0A0E0B0E0CE
S11322C08E1B9109A109B1098E879F87A88BB98BB1
S11322D0809167158E1710F4E09367158BE08E9F3D
S11322E0F0011124E755FA4E0180F281E02DFF83BD
S11322F0EE832681378139872887A681B781159691
S11323001C930E93149717830683EA8D8E9FF00116
S11323101124E755FA4EFD87EC8780818F5F808317
S113232081E005C080E003C080E001C080E0DF916F
S1132330CF911F910F9108954F925F926F927F9268
S1132340AF92BF92CF92DF92EF92FF920F931F93BF
S1132350CF93DF93280139010FB6F8940F92E091DF
S11323601716F0911816C82FD0E0EC0FFD1F83A9A3
S1132370823071F1E0911716F0911816CE01880F92
S1132380991F880F991FE80FF91F87A590A9A1A984
S1132390B2A94095509560957095482359236A23B6
S11323A07B2347A750AB61AB72ABE0911716F0915A
S11323B01816EC0FFD1F81E083ABA114B104C10416
S11323C0D10431F041E0C601B50188D90E942F0340
S11323D00F900FBE0FB6F8940F92E114F104A1F020
S11323E0E0911716F0911816CE01880F991F880FE7
S11323F0991FE80FF91F87A590A9A1A9B2A9F70110
S113240080839183A283B383E0911716F091181609
S1132410EC0FFD1F83A98230E9F4E0911716F091C7
S11324201816CE01880F991F880F991FE80FF91FFE
S113243087A590A9A1A9B2A94094509460947094DE
S1132440482259226A227B2247A650AA61AA72AA6C
S113245081E001C080E02091171630911816C20F58
S1132460D31F1BAA0F900FBEDF91CF911F910F9125
S1132470FF90EF90DF90CF90BF90AF907F906F90E0
S11324805F904F9008958F929F92AF92BF92EF9278
S1132490FF920F93CF93DF93DC010FB6F8940F9262
S11324A0E114F10489F0E62FF0E0EE0FFF1FEE0FC8
S11324B0FF1FE80FF91F87A490A8A1A8B2A8F701ED
S11324C080829182A282B38270E0FD01E60FF71F41
S11324D083A992E093AB023001F118F4013031F09A
S11324E04DC0033079F10430D1F148C0660F771F35
S11324F0660F771FFD01E60FF71F87A490A8A1A818
S1132500B2A8BA01A901482959296A297B2947A7F0
S113251050AB61AB72AB01E034C0660F771F660F3E
S1132520771FFD01E60FF71F47A550A961A972A9FE
S11325304F5F5F4F6F4F7F4F47A750AB61AB72AB9D
S113254001E01FC0660F771F660F771FFD01E60FBE
S1132550F71F27A730AB41AB52AB01E012C082306A
S113256079F0660F771F660F771FFD01E60FF71FDF
S113257027A730AB41AB52AB01E003C001E001C07F
S113258000E0813009F069C01C96ED91FC911D9723
S11325901696CD91DC91179718968D919C91199769
S11325A09F838E831896CD91DC91199716968D9101
S11325B09C9117979D838C83818192819D012E5FCD
S11325C03F4F8217930731F418968D919C91199778
S11325D0928381831D961C921E921C978081815048
S11325E080835A96EC915A97809167158E1710F450
S11325F0E09367158BE08E9FF0011124E755FA4EA6
S11326000180F281E02D1796FC93EE931697468194
S1132610578119965C934E931897C681D7813D8351
S11326202C83378326835A96EC915A978E9FF00118
S11326301124E755FA4E1D96FC93EE931C97808166
S11326408F5F80835A969C91E0911716F09118162B
S1132650828D891710F40E942F030F900FBE802FD4
S1132660DF91CF910F91FF90EF90BF90AF909F902B
S11326708F9008958F929F92AF92BF92CF92DF92E4
S1132680EF92FF920F93CF93DF93DC01E114F104F7
S113269089F0E62FF0E0EE0FFF1FEE0FFF1FE80FAB
S11326A0F91F87A490A8A1A8B2A8F70180829182FB
S11326B0A282B38270E0FD01E60FF71F93A982E0C6
S11326C083AB023001F118F4013031F04DC0033016
S11326D079F10430D1F148C0660F771F660F771F78
S11326E0FD01E60FF71F87A490A8A1A8B2A8BA011C
S11326F0A901482959296A297B2947A750AB61AB0D
S113270072AB81E034C0660F771F660F771FFD013F
S1132710E60FF71F47A550A961A972A94F5F5F4F44
S11327206F4F7F4F47A750AB61AB72AB81E01FC0C7
S1132730660F771F660F771FFD01E60FF71F27A7A8
S113274030AB41AB52AB81E012C0923079F0660FEE
S1132750771F660F771FFD01E60FF71F27A730AB22
S113276041AB52AB81E003C081E001C080E0913015
S113277009F096C09091581591115FC01C96ED9187
S1132780FC911D971696CD91DC91179718962D9173
S11327903C9119973F832E831896CD91DC9119971C
S11327A016962D913C9117973D832C83418152813C
S11327B09D012E5F3F4F4217530731F418964D91F8
S11327C05C911997528341831D961C921E921C970B
S11327D09081915090835A96EC915A9790916715F5
S11327E09E1710F4E09367159BE09E9FF00111245F
S11327F0E755FA4E0180F281E02D1796FC93EE9393
S113280016974681578119965C934E931897C68103
S1132810D7813D832C83378326835A96EC915A972C
S11328209E9FF0011124E755FA4E1D96FC93EE93FA
S11328301C9790819F5F908321C064E875E1FB0140
S1132840C181D2815396DC93CE9352972E813F81DE
S113285055963C932E9354974E815F819D01225F40
S11328603F4FFA01358324833F832E8359967C930B
S11328706E935897FB0190819F5F90835A962C9199
S1132880E0911716F0911816928D921748F4C1141E
S1132890D10419F091E0F601908391E090936115D1
S11328A0DF91CF910F91FF90EF90DF90CF90BF9089
S11328B0AF909F908F900895009721F48091171600
S11328C0909118160FB6F8940F9270E0FC01E60F81
S11328D0F71F23A9223031F4FC01E60FF71F13AAD6
S11328E081E001C080E00F900FBE0895DC01E0910B
S11328F02316F0912416808191E0811190E09C933D
S1132900911108C00780F085E02D6081718182817A
S11329109381089560E070E0CB010895CF92DF9237
S1132920EF92FF920F931F93FC01428353836483BE
S11329307583938782870417150726073707C0F026
S11329400C191D092E093F0986859785A089B1892F
S1132950081719072A073B0700F5BF016E5F7F4F71
S113296080912116909122160E94760280E018C070
S11329700C151D052E053F0528F44C155D056E0547
S11329807F0568F4BF016E5F7F4F8091231690919D
S113299024160E94760280E003C081E001C081E039
S11329A01F910F91FF90EF90DF90CF9008950FB695
S11329B0F8940F9280911F1690912016892BE9F4B8
S11329C080E396E10E94610285E296E10E94610241
S11329D080E396E1909324168093231685E296E192
S11329E0909322168093211640E067E08AE00E94CB
S11329F014059093201680931F160F900FBE089510
S1132A00EF92FF920F93D3DF80911F1690912016BF
S1132A10892B91F00F2EFDE1EF2EF6E1FF2EF02D24
S1132A2003E020E030E040EC50E064E772E087ED42
S1132A3090E00E94100C01C080E00F91FF90EF9095
S1132A4008958F929F92AF92BF92CF92DF92EF92AE
S1132A50FF920F931F93CF93DF93CDB7DEB72797E2
S1132A600FB6F894DEBF0FBECDBFE0911F16F091F4
S1132A702016309781F169832A833B834C835D83DD
S1132A809F838E836630F4F4EEDB823069F400E0D9
S1132A90A7019601BE016F5F7F4F80911F16909131
S1132AA020160E94370518C000E020E030E0A9019C
S1132AB0BE016F5F7F4F80911F16909120160E9478
S1132AC037050AC020E0A801BE016F5F7F4FCF0128
S1132AD00E94E70501C080E027960FB6F894DEBF98
S1132AE00FBECDBFDF91CF911F910F91FF90EF905B
S1132AF0DF90CF90BF90AF909F908F9008958F926A
S1132B009F92AF92BF92CF92DF92EF92FF920F9378
S1132B101F93CF93DF933BC00780F085E02D808027
S1132B209180A280B380C085D1858E010E5F1F4F36
S1132B30C8010E94B302EC89FD89CE0119958E89E2
S1132B4082FF25C08E859F85A889B989880D991D26
S1132B50AA1DBB1D88169906AA06BB0670F48A83B3
S1132B609B83AC83BD83DB87CA87B801809123161E
S1132B70909124160E9476020AC0C12CD12C7601B1
S1132B8000E010E0A501940160E0CE015ADFE0917D
S1132B902316F091241680818111BECF80912116D5
S1132BA0909122169093241680932316F093221664
S1132BB0E0932116DF91CF911F910F91FF90EF9039
S1132BC0DF90CF90BF90AF909F908F900895CF9259
S1132BD0DF92EF92FF92CF93DF93EC010E949A0C65
S1132BE06B017C018091191690911A16A0911B1605
S1132BF0B0911C16C816D906EA06FB0620F47FDF3E
S1132C0081E0888301C01882C0921916D0921A16E6
S1132C10E0921B16F0921C16C701B601DF91CF910A
S1132C20FF90EF90DF90CF9008954F925F926F9254
S1132C307F928F929F92AF92BF92CF92DF92EF9248
S1132C40FF920F931F93CF93DF934B015C012901F4
S1132C503A01E0912316F09124160780F085E02DC7
S1132C60C085D185CE0102960E94B3028E8982FF6F
S1132C701BC04E855F8568897989480D591D6A1D79
S1132C807B1D7501640193018201CE0147DE882317
S1132C9069F0C12CD12C760100E010E0A50194016B
S1132CA060E0CE01CEDE02C08E7F8E8BEC89FD8982
S1132CB0CE011995DF91CF911F910F91FF90EF9065
S1132CC0DF90CF90BF90AF909F908F907F906F9048
S1132CD05F904F9008958F929F92AF92BF92CF9240
S1132CE0DF92EF92FF921F93CF93DF931F92CDB7A2
S1132CF0DEB76B017C01142F0E94940CCE01019667
S1132D0066DF4B015C01898181112DC011110DC059
S1132D108C149D04AE04BF0440F00E94D40DA501A0
S1132D209401C701B60181DF20C0112341F0E09175
S1132D302116F0912216808111E0811110E0B70173
S1132D40A601481959096A097B09212F80911F1688
S1132D50909120160E94B1060E94D40D811105C0E5
S1132D600E942F0302C00E94D40D0F90DF91CF91D7
S1132D701F91FF90EF90DF90CF90BF90AF909F9006
S1132D808F900895AF92BF92CF92DF92EF92FF920D
S1132D900F931F93CF93DF93CDB7DEB728970FB66A
S1132DA0F894DEBF0FBECDBF82C0898188230CF4A6
S1132DB07EC0AE80BF80D5011C968D919C911D97DD
S1132DC0892B21F0C50102960E94B302CE01089618
S1132DD0FEDE8B019C01E9810E2E000CFF0BEA3014
S1132DE0F10508F064C08827EE58FF4F8F4F0C940C
S1132DF0432CF50186898160868BCA80DB80EC8058
S1132E00FD8046855785608971894C0D5D1D6E1D59
S1132E107F1DC50183DD882309F449C0D50154967B
S1132E20ED91FC915597C5011995F501868982FFAD
S1132E303EC04A815B816C817D8186859785A089AE
S1132E40B1899A01AB01280F391F4A1F5B1FC12C9E
S1132E50D12C760100E010E060E0C501F2DD27C06E
S1132E60D50156968C9156978E7F56968C931FC09B
S1132E70F50186898160868B4A815B816C817D81C5
S1132E8046875787608B718B400F511F621F731FDA
S1132E9068017901C50142DD0AC0F501868981FD19
S1132EA004C0C5010E94240202C08E7F868B20E0EC
S1132EB030E0A901BE016F5F7F4F80911F16909192
S1132EC020160E942206811170CF28960FB6F8941E
S1132ED0DEBF0FBECDBFDF91CF911F910F91FF9049
S1132EE0EF90DF90CF90BF90AF900895089584B194
S1132EF0806884B985B1806885B9089583B1806894
S1132F0083B90895F4DF2FEF80E792E021508040E9
S1132F109040E1F700C00000F1DFF5CFE8DF2FEFCC
S1132F2087EA91E6215080409040E1F700C000001C
S1132F30E5DFF5CF0F931F93CF93DF93CDB7DEB7C4
S1132F4064970FB6F894DEBF0FBECDBF81E00E9438
S1132F503228A8D50E94CF1F9F938F938CE792E0CD
S1132F609F938F930E94F32D1BD70E94CF1F9F9393
S1132F708F938FE892E09F938F930E94F32D8E019D
S1132F800F5F1F4FC801A0D50E94CF1F1F930F933F
S1132F909F938F9388EA92E09F938F930E94F32DDF
S1132FA0C801AED5FCD79F938F931F930F938CEBDF
S1132FB092E09F938F930E94F32DA80161ED72E03C
S1132FC082EF92E0CBD7EBD79F938F931F930F930E
S1132FD081ED92E09F938F9382EF92E09F938F9382
S1132FE083E093E09F938F930E94F32DBCD5D7D7B2
S1132FF09F938F9389E393E09F938F930E94F32D84
S11330000FB6F894DEBF0FBECDBF81E0A6D6C7D7FA
S11330109F938F9388E493E09F938F930E94F32D63
S113302084EF91E0A5D6BBD79F938F9381E08F93D4
S113303084EF8F9389E693E09F938F930E94F32DFF
S11330400FB6F894DEBF0FBECDBF1AE080E091D575
S1133050082FA5D79F938F931F921F9389E893E01E
S11330609F938F930E94F32D0F900F900F900F90CA
S11330700F900F90083041F066E371E080E090E03B
S11330800E94150F115011F7083019F00E942F03F8
S1133090FDCF64960FB6F894DEBF0FBECDBFDF91AF
S11330A0CF911F910F910895CF93DF9300D01F927A
S11330B0CDB7DEB781E0E8D462E070E080E090E074
S11330C00E94150F80E0E0D466E970E080E090E0B3
S11330D00E94150F92D42EDFEBE3F6E186E08183A4
S11330E082E080830E949A0C69837A838B839C8319
S11330F048EA58E460E070E0CE0101960E94B00E08
S1133100EBE3F6E180E3828389E3838382E08483D3
S113311083EA858384E086838AE18783BF0180E034
S113312051D53DD79F938F9389EA93E09F938F93D3
S11331300E94F32D0F900F900F900F90D9CFEF9224
S1133140FF920F93E12CF12C082F20E030E048E8A7
S113315051E06EEB73E084E598E10E94100C0F914E
S1133160FF90EF900895CF93DF9300D01F92CDB7D7
S1133170DEB70E949A0C69837A838B839C834FE128
S113318050E060E070E0CE0101960E94B00E85EC44
S113319093E00E94062E92B181E0892782B90E94B1
S11331A0D520882361F38BEC93E00E94062EE7CFB1
S11331B09F938F938BEE93E09F938F930E94F32DB5
S11331C00F900F900F900F900895CF93DF9300D03E
S11331D01F92CDB7DEB70E949A0C69837A838B83E2
S11331E09C8382E00E94552884D2882321F08EEFAC
S11331F093E00E94062E44E650E060E070E0CE01C9
S113320001960E94B00E8AD2882321F087E194E0CF
S11332100E94062E82E394E0C2D04EE350E060E0C8
S113322070E0CE0101960E94B00E87E394E00E9404
S1133230062E82B1805882B959D2882371F384E46E
S113324094E00E94062EB6D29F938F938FE594E06C
S11332509F938F930E94F32D87D29F938F938AE637
S113326094E09F938F930E94F32D43D20FB6F8946A
S1133270DEBF0FBECDBF882321F08EEF93E00E9406
S1133280062E44E650E060E070E0CE0101960E9414
S1133290B00E44D2882309F4C0CF87E194E00E94A1
S11332A0062EBBCFEF92FF920F938091B8179091A7
S11332B0B917892B89F481E00E94DB059093B91733
S11332C08093B817009741F000E020E030E0A901B6
S11332D060E070E00E943705E12CF12C02E020E070
S11332E030E040EC50E065EC73E083EB98E10E9441
S11332F0100C01E020E030E040EC50E069E774E0BD
S113330085EE98E10E94100C0F91FF90EF900895C4
S113331081B1816881B980E00E94C224C3DF85E065
S11333200E94E42760E070E081E06ED383E007DF71
S113333080E090E0E7D0DBD0C1D1882341F08FE773
S113334094E09F938F930E94F32D0F900F9083E04E
S113335002D788ED98E124C70895DADF8CE994E078
S11333600E94062E0E945C0CFFCF81B38F6081BB4C
S11333702898289A21B381E090E00090821602C038
S1133380880F991F0A94E2F78095822381BBE0910C
S11333905116F0915216309709F019950895CF936C
S11333A0DF93EC01FC0101900020E9F73197E81B61
S11333B0F90BE0935716E13208F47DC018A20E947D
S11333C0E92D809157168530E0F444E050E0481B25
S11333D051091416150674F480E090E020E02F5F84
S11333E0FC01E85AF94E1082822F90E08417950769
S11333F0B4F301C020E01092541691E0920F20E043
S11334002EC0E8E5F6E110821182128223E0F5CFA6
S1133410FE01E40FF51FA08130ED3A0F3A3050F46D
S1133420E82FF0E0E85AF94EB0E0AF57BB4F8C916B
S1133430808313C03FEB3A0F363050F4E82FF0E0AE
S1133440E85AF94EB0E0A658BB4F8C91808305C072
S1133450E82FF0E0E85AF94E10822F5F9F5F8FEF5C
S1133460890F422F50E0FE0101900020E9F73197C7
S1133470EC1BFD0B4E175F0758F2209157162530B1
S113348010F1E82FF0E0E85AF94E1082E92FF0E04D
S1133490E85AF94E1082E1E0E90FF0E0E85AF94EFB
S11334A010829E5F909354161092531610925616E3
S11334B01092551608C00E94E92D80915716853048
S11334C008F483CF9ECFEEE7F6E1A8E5B6E18C9150
S11334D0808311968C911197818312968C91129707
S11334E0828313968C918383DF91CF91089585B560
S11334F0856085BD089585B5887F85BD81B38F605E
S113350081BB08958F92AF92CF92EF920F931F9346
S1133510CF93DF93EC0180B38F6080BB81B38F6066
S113352081BB209A85EB99E19F938F93812CA12CE9
S1133530C12CE12C00E010E020E240E063E080E1F7
S11335400E942425909384168093831689E187BD75
S113355084B5826084BDEEE6F0E080818260808381
S1133560CADFD0935216C09351160F900F90DF917B
S1133570CF911F910F91EF90CF90AF908F900895BE
S11335801F920F920FB60F9211240BB60F922F9326
S11335903F934F935F936F937F938F939F93AF93D7
S11335A0BF93EF93FF9380915416882369F1209180
S11335B0551630915616253F91E0390738F42F5FA0
S11335C03F4F30935616209355161EC01092561630
S11335D010925516E09153162E2F30E090E0049788
S11335E02817390714F4EF5F01C0E0E0E0935316A5
S11335F0F0E0E85AF94EAEE7B6E122E836E181910F
S11336008D93A217B307D9F78091821690E00196A3
S113361083709078992324F401978C6F9F6F01969F
S1133620809382169927FC01E258F94E60816095D7
S113363080918316909184160E94F625FF91EF9154
S1133640BF91AF919F918F917F916F915F914F91B6
S11336503F912F910F900BBE0F900FBE0F901F90B4
S113366018956530F1F4FA0180818F7390E0982FFA
S113367088272181822B90930A02809309028281F8
S1133680F0E48F9FC0011124FA0123812695269529
S1133690822B909308028093070281E08093851621
S11336A00895643051F080E090E490930802809390
S11336B0070290930A028093090208950F931F93BF
S11336C001E31BE120E034E244EF50E060E087E2F4
S11336D00E948928909387168093861621E0892B6F
S11336E009F020E0822F1F910F9108958091851693
S11336F008958091861690918716009759F040E0BE
S113370060E070E00E94DA28843031F4109285166B
S113371080E0089582E0089583E0089580918616FC
S113372090918716009739F064E00E94262985302D
S113373021F083E0089582E0089580E00895609187
S1133740090270910A0280E090E00E94302B20E090
S113375030E048EC52E40E94BE2B20E038EF4FE703
S113376056E40C94972A0895EADF20E030E040E222
S113377051E40E94BE2B0E94042BCB01089560915A
S113378007027091080280E090E00E94302B20E054
S113379030E045E253E40E94BE2B20E038EF4FE7CF
S11337A056E40E94972A20E030E040E252E40C9470
S11337B0322A0895E4DF20E030E040E251E40E9440
S11337C0BE2B0E94FF2ACB0108950F931F93CF9322
S11337D0DF931F921F92CDB7DEB78C0119822DC0E3
S11337E0E091BF16EC3250F481E08E0F8093BF1647
S11337F0F0E0EF50F94E8A81808302C01092BF1628
S11338008A818A30D1F44091BF1650E0FA01E15127
S1133810F94E1082415051099E012F5F3F4F61EFD5
S113382076E18091C2169091C3160E943509898170
S113383081110E942F031092BF16BE016E5F7F4F4D
S1133840C8010AD6882361F20F900F90DF91CF91BF
S11338501F910F9108950F931F93CF93DF938C01C2
S1133860EB018091C2169091C3160E944208B801E0
S113387088E896E10E94CA2D209779F0E8E8F6E1FD
S113388001900020E9F7319780E290E091838083F2
S1133890BE0188E896E10E94BF2DE8E8F6E1DF0169
S11338A00D900020E9F711978DE09AE011969C9312
S11338B08E9312961C9201900020E9F73197E858F4
S11338C0F641AE2F88E896E1AC016A2F8091C416C8
S11338D09091C5166CD5811111C008E215E020E065
S11338E030E04DE250E06BE477E18091C2169091B4
S11338F0C3160E9479098BE497E102C080E090E04E
S1133900DF91CF911F910F9108952F923F924F9283
S11339105F926F927F928F929F92AF92BF92CF925B
S1133920DF92EF92FF920F931F93CF93DF935C018B
S1133930FC0101900020E9F731976F01C81AD90AF8
S11339405C2C0F2EFAE58F2EF7E09F2EF02DE12C44
S1133950F12C4C2C3701F40101811281E80109900A
S11339600020E9F72197C01BD10B3C2EF9E0CF16BC
S1133970D10458F0F4012080FEE02F1206C0B801F3
S1133980C5010E949A2D892B09F5442D351408F49C
S11339904C2F50E0B801C5010E94D12D892B49F468
S11339A0F301EE0FFF1FE60DF71DE65AF84F2080D6
S11339B00DC08FEFE81AF80AE3E08E0E911CF1E1D6
S11339C0EF16F10439F66894222424F8822DDF914D
S11339D0CF911F910F91FF90EF90DF90CF90BF9008
S11339E0AF909F908F907F906F905F904F903F909B
S11339F02F90089530DF89CF08958091C216909159
S1133A00C3160C94420808958F929F92AF92CF925E
S1133A10EF920F931F93CF93C82F8B0141E060E087
S1133A2070E088EC90E00E9410089093C316809395
S1133A30C2161093C1160093C0160F2EF5EE8F2EEA
S1133A40FBE19F2EF02D6894AA24A6F86894CC2458
S1133A50C6F8E12C00E023E040E051EE60E070E0C5
S1133A608C2FD2D39093C5168093C416E7E0F1E06F
S1133A70808180618083CF911F910F91EF90CF90CF
S1133A80AF909F908F900895882331F0E8E0F1E0A3
S1133A9080818F7E80830895E8E0F1E080818061F9
S1133AA08083089560E070E080EE94E0D4DEEBE47F
S1133AB0F7E101900020E9F73197EB54F74181E0F9
S1133AC0759708F080E00895CF93DF93EC0160E0F0
S1133AD070E081EF94E0BFDEEBE4F7E101900020B9
S1133AE0E9F7EC55F74139F46BE477E1CE010E9434
S1133AF0CA2D80E002C0188281E0DF91CF91089541
S1133B00FC0101900020E9F79F0121513109281798
S1133B10390729F4BC018FE195E06CCF089589E061
S1133B200895FC0101900020E9F79F01215131091A
S1133B302817390729F4BC018EE295E05BCF08957C
S1133B4089E00895FC0101900020E9F79F012152CA
S1133B5031092817390729F4BC018DE395E04ACFD0
S1133B60089589E0089560E070E08CE795E042CF25
S1133B7008950F931F93E82FF0E0EE0FFF1FEA5A0A
S1133B80F84F6081718185E895E034DF811114C0BC
S1133B9008E215E020E030E04DE250E06BE477E12C
S1133BA08091C2169091C3160E947909882321F04E
S1133BB08BE497E1AADE03C08BE497E1A6DE1F91B4
S1133BC00F9108950F931F93CF93DF931F92CDB757
S1133BD0DEB7DB0111969C911197953108F0B4C0C2
S1133BE0992381F160E070E0272F30E0462F50E008
S1133BF0FD01E40FF51F928192959F709A3010F0A9
S1133C00995C01C0905DF901E452F94E90832F5FF5
S1133C103F4FFD01E40FF51F92819F70492F50E043
S1133C204A30510514F0995C01C0905DF901E452E9
S1133C30F94E90837E5F6F5F11969C91119769177F
S1133C4098F201C070E0E72FF0E0E452F94E1082E0
S1133C504C91811103C08EE895E002C080E995E0A3
S1133C602CED36E13F932F931F924F939F938F93A5
S1133C7084E995E09F938F938EE197E19F938F93CF
S1133C800E94362E60E070E08EE197E1B3DE0FB65D
S1133C90F894DEBF0FBECDBF811159C008E215E014
S1133CA020E030E04DE250E06BE477E18091C21611
S1133CB09091C3160E947909882309F447C08BE4C4
S1133CC097E123DE8E3009F042C087E0898380913A
S1133CD0C0169091C116892BA9F1BE016F5F7F4F69
S1133CE08BE497E168D18093C616E981F0E0E55B47
S1133CF0F84EDF010D900020E9F71197AE1BBF0BC2
S1133D00AA2391F0BB27CD0101979C0112F42F5FE8
S1133D103F4F359527952093C716AF014F5F5F4FEF
S1133D2064E188EC96E173D101E010E020E030E03A
S1133D3046E150E066EC76E18091C0169091C116A0
S1133D400E9472088EE003C084E101C080E00F90FD
S1133D50DF91CF911F910F910895813019F064EA9A
S1133D6075E002C06DE776E088EA95E043CE0895F9
S1133D709F938F9389ED95E09F938F938EE197E1C5
S1133D809F938F930E94362E60E070E08EE197E15E
S1133D9031DE0F900F900F900F900F900F900895B9
S1133DA02F923F924F925F926F927F928F929F9247
S1133DB0AF92BF92CF92DF92EF92FF920F931F9335
S1133DC0CF93DF93CDB7DEB7A0970FB6F894DEBFDD
S1133DD00FBECDBF66E076E082E196E03CDD95DD86
S1133DE08111A3C080E2E2E2F2E0DE0111960190CB
S1133DF00D928A95E1F79E012F5F3F4F6901E12CF7
S1133E00F12C0F2EFEE1AF2EF6E0BF2EF02D0EE1C9
S1133E1017E10F2EF7E34F2EF6E05F2EF02D0F2E55
S1133E20FEE48F2EF6E09F2EF02D0F2EF8E66F2E77
S1133E30F6E07F2EF02D3E2C2F2CFF92EF92BF92B6
S1133E40AF921F930F930E94362E60E070E0C8017A
S1133E5002DD5BDD0F900F900F900F900F900F908D
S1133E60811163C032E03E15E8F4F60183818F933B
S1133E7082818F9381818F9380818F93FF92EF92C0
S1133E805F924F921F930F930E94362E60E070E072
S1133E90C801E1DC3ADD0FB6F894DEBF0FBECDBF3A
S1133EA0811143C02F923F929F928F921F930F9341
S1133EB00E94362E60E070E0C801CDDC26DD0F9054
S1133EC00F900F900F900F900F9081112EC02F9292
S1133ED03F927F926F921F930F930E94362E60E061
S1133EE070E0C801B8DC11DD0F900F900F900F90B7
S1133EF00F900F90811119C03FEFE31AF30A84E089
S1133F00C80ED11C98E0E916F10409F094CF60E0E2
S1133F1070E080E896E09FDCF8DC811106C060E088
S1133F2070E081E996E097DCF0DCA0960FB6F89497
S1133F30DEBF0FBECDBFDF91CF911F910F91FF90D8
S1133F40EF90DF90CF90BF90AF909F908F907F9035
S1133F506F905F904F903F902F900895EF92FF9253
S1133F600F931F93CF93DF93EC018B017A0181E0D0
S1133F70F4DE81110DC0CE01D4DD811109C0C80168
S1133F80E1DD811105C0C701BBDD811101C0EBDD9D
S1133F90DF91CF911F910F91FF90EF90089590E0E2
S1133FA0FC01EE0FFF1F8E0F9F1FFC01E65AF84F16
S1133FB0818192810895DC01009729F1FB01208120
S1133FC0FC0101900020E9F73197E81BF90B822FDF
S1133FD090E0E817F907C8F080E008C0880F382F90
S1133FE0330F330F830F8053890F2F5FFD01E20FCF
S1133FF0F11D908130ED390F3A3010F49111EECF6C
S1134000FB012083089580E0089580E008950F93D4
S11340101F93CF93DF93DC01EA012097E1F1FA01CA
S113402001900020E9F73197E41BF50B329710F566
S113403032C08D01040F151F30E0AE01420F531F33
S1134040FA019081913428F09753592F5295507F5B
S113405003C0592F5295507F2C0F3D1FF9019181B8
S1134060913410F0975301C09053950FF801908349
S11340708F5F01C080E0282F220F482F50E0FE01FF
S113408001900020E9F73197EC1BFD0B4E175F07F9
S113409010F48613CECFDF91CF911F910F91089525
S11340A080917B17860F80937B1790917E179130B8
S11340B079F028F09230A9F0933019F108956F3F08
S11340C009F048C010927B1781E080937E17089511
S11340D0663809F03FC010927A1782E080937E1709
S11340E00895E0917A1781E08E0F80937A17F0E0BB
S11340F0E858F84E6083823069F583E080937E1738
S1134100089590917A1721E0290F20937A17963019
S113411009F581110EC0E8E7F7E1808190E0982F5E
S113412088272181820F911D9093801780937F1798
S113413004C01092801710927F1710927E17E0919E
S11341407C17F0917D17309729F080917F1790911B
S11341508017199508958F929F92AF92CF92EF9204
S11341600F930F2EF0E58F2EF0E29F2EF02D689422
S1134170AA24A4F86894CC24C4F8E12C00E023E039
S113418040E855E260E070E03FD09093821780935E
S113419081170F91EF90CF90AF909F908F900895DB
S11341A090937D1780937C170895CF93DF93CDB7B9
S11341B0DEB729970FB6F894DEBF0FBECDBF89E0F6
S11341C0E2E4F2E09E012F5F3F4FD90101900D928E
S11341D08A95E1F71092801710927F1780918117CA
S11341E090918217009731F0422F532F69E0DFD06E
S11341F080E001C082E029960FB6F894DEBF0FBEBE
S1134200CDBFDF91CF9108952F923F924F925F924D
S11342106F927F928F929F92AF92CF92EF92FF9282
S11342200F931F93CF93DF93CDB7DEB7F82E2A01F8
S11342303B0188E090E00E94652C8C018F2D90E07A
S1134240FC01EE0FFF1FED57F84E1183008301159B
S1134250110509F46FC0880F991FFC01E55FFD4F3C
S113426080819181D8018D939C938C2D90E0880F4F
S1134270991F880F991F0E94652C1C0186E090E00D
S11342800E94652C7C014C2DB1010E94162AF80174
S1134290F582E4828A2D90E0880F991F880F991F78
S11342A00E94652C1C0186E090E00E94652C7C0134
S11342B04A2DB1010E94162AD8011396FC92EE925F
S11342C0129717969C928E921697FFB6F894ED91DA
S11342D0FC91119736978081826080838D909C90A9
S11342E0C301B2010E94302B20E030E040E051E4F1
S11342F00E94BE2B9B01AC0160E074E284E79BE466
S11343000E94972A20E030E040E85FE30E94322ACE
S11343100E94042BF40132976083D801ED91FC9143
S11343201197359788E98083ED91FC91349786E065
S11343308083FFBEC801DF91CF911F910F91FF9041
S1134340EF90CF90AF909F908F907F906F905F9001
S11343504F903F902F900895CF93DF93DC01892BEA
S113436001F11296ED91FC9113979381828125813D
S1134370981B922384819817B1F083812695282372
S1134380C081D181C20FD11D68838F5F958189233C
S11343908383ED91FC91359780818062808380E0F6
S11343A003C081E001C082E0DF91CF910895EF92D4
S11343B0FF920F931F93CF93DF937C01009709F42F
S11343C041C0DC011296ED91FC9113979381828197
S11343D0981B858198238481891B8617A8F16623FD
S11343E041F1842F952FDC016150462F50E04F5F3F
S11343F05F4F480F591FE701EA81FB819381828156
S11344002581981B92238481981779F08C9193814C
S113441026952923608171818B01020F111DE8010A
S113442088839F5F8581982393831196A417B5078A
S113443011F7D701ED91FC913597808180628083DB
S113444080E003C081E001C082E0DF91CF911F9141
S11344500F91FF90EF9008950097D1F0DC0114962E
S1134460ED91FC91159793818281981799F092812F
S1134470858186958923A081B181A80FB11D8C9176
S1134480DB018C939F5F85819823928380E008955C
S113449081E0089583E008951F920F920FB60F9262
S11344A011240BB60F922F933F934F935F936F9307
S11344B07F938F939F93AF93BF93CF93DF93EF93A8
S11344C0FF93A0918317B0918417109711F1609115
S11344D0C6001496ED91FC911597938182812581F4
S11344E0981B92238481981761F083812695282351
S11344F0C081D181C20FD11D68838F5F95818923CB
S113450083831696ED91FC911797309711F0CD01A6
S11345101995FF91EF91DF91CF91BF91AF919F9149
S11345208F917F916F915F914F913F912F910F9058
S11345300BBE0F900FBE0F901F9018951F920F92F5
S11345400FB60F9211240BB60F922F938F939F9354
S1134550AF93BF93EF93FF93E0918317F091841788
S11345603097B9F00280F381E02D9381828198170E
S1134570B1F092818581282F26952923A081B181CC
S1134580A20FB11D2C919F5F892382832093C600C3
S11345900BC0E1ECF0E080818F7D808305C0E1EC0D
S11345A0F0E080818F7D8083FF91EF91BF91AF9187
S11345B09F918F912F910F900BBE0F900FBE0F9074
S11345C01F9018951F920F920FB60F9211240BB6DD
S11345D00F922F933F934F935F936F937F938F9398
S11345E09F93AF93BF93CF93DF93EF93FF93A091E8
S11345F08517B0918617109711F16091CE0014962B
S1134600ED91FC911597938182812581981B9223CA
S11346108481981761F0838126952823C081D181F4
S1134620C20FD11D68838F5F95818923838316967A
S1134630ED91FC911797309711F0CD011995FF91E9
S1134640EF91DF91CF91BF91AF919F918F917F9126
S11346506F915F914F913F912F910F900BBE0F90EF
S11346600FBE0F901F9018951F920F920FB60F92C6
S113467011240BB60F922F938F939F93AF93BF93F5
S1134680EF93FF93E0918517F09186173097B9F077
S11346900280F381E02D938182819817B1F0928199
S11346A08581282F26952923A081B181A20FB11DD0
S11346B02C919F5F892382832093CE000BC0E9EC69
S11346C0F0E080818F7D808305C0E9ECF0E080819B
S11346D08F7D8083FF91EF91BF91AF919F918F91D7
S11346E02F910F900BBE0F900FBE0F901F90189537
S11346F01F920F920FB60F9211240BB60F922F93A5
S11347003F934F935F936F937F938F939F93AF9355
S1134710BF93CF93DF93EF93FF93A0918717B0914B
S11347208817109711F16091D6001496ED91FC91C1
S11347301597938182812581981B922384819817F0
S113474061F0838126952823C081D181C20FD11DB8
S113475068838F5F9581892383831696ED91FC91FD
S11347601797309711F0CD011995FF91EF91DF91D3
S1134770CF91BF91AF919F918F917F916F915F91F5
S11347804F913F912F910F900BBE0F900FBE0F9042
S11347901F9018951F920F920FB60F9211240BB60B
S11347A00F922F938F939F93AF93BF93EF93FF93A6
S11347B0E0918717F09188173097B9F00280F38160
S11347C0E02D938182819817B1F092818581282F01
S11347D026952923A081B181A20FB11D2C919F5F41
S11347E0892382832093D6000BC0E1EDF0E0808121
S11347F08F7D808305C0E1EDF0E080818F7D808333
S1134800FF91EF91BF91AF919F918F912F910F9055
S11348100BBE0F900FBE0F901F9018951F920F9212
S11348200FB60F9211240BB60F922F933F934F9311
S11348305F936F937F938F939F93AF93BF93CF9324
S1134840DF93EF93FF93A0918917B0918A17109784
S113485011F1609136011496ED91FC9115979381B5
S113486082812581981B92238481981761F083812A
S113487026952823C081D181C20FD11D68838F5F03
S11348809581892383831696ED91FC911797309730
S113489011F0CD011995FF91EF91DF91CF91BF9167
S11348A0AF919F918F917F916F915F914F913F91C4
S11348B02F910F900BBE0F900FBE0F901F90189565
S11348C01F920F920FB60F9211240BB60F922F93D3
S11348D08F939F93AF93BF93EF93FF93E0918917C7
S11348E0F0918A173097B9F00280F381E02D93811B
S11348F082819817B1F092818581282F26952923EA
S1134900A081B181A20FB11D2C919F5F8923828365
S1134910209336010BC0E1E3F1E080818F7D808339
S113492005C0E1E3F1E080818F7D8083FF91EF9109
S1134930BF91AF919F918F912F910F900BBE0F90CC
S11349400FBE0F901F901895CF93DF931F92CDB792
S1134950DEB7BE016F5F7F4F80918B1790918C17EC
S11349607BDD8111F6CF898190E00F90DF91CF91AB
S11349700895682F80918B1790918C17EDDC80E05F
S113498090E008958F929F92AF92CF92EF920F93FF
S1134990812C912C6894AA24A7F86894CC24C7F895
S11349A0E12C00E023E040E051EE60E070E02CDC1C
S11349B090938C1780938B17EEEBF7E183E192E0F1
S11349C091838083938382830F91EF90CF90AF90F4
S11349D09F908F900895E0918E17F0918F173097E4
S11349E0F9F0A081B1811097D9F02381213069F4C5
S11349F04C9121E030E0028002C0220F331F0A9460
S1134A00E2F7209524232C930BC04C9121E030E055
S1134A10028002C0220F331F0A94E2F7242B2C9346
S1134A2090938F1780938E17009769F010929017C8
S1134A302CB52F732CBDFC0124812CBD85818DBD2B
S1134A408CB580648CBD08954F925F926F927F9273
S1134A508F929F92AF92BF92CF92DF92EF92FF928A
S1134A600F931F93CF93DF93CDB7DEB7982EB62E57
S1134A70D42EF22E80918D17811106C084B18760E7
S1134A8084B981E080938D178CE090E01ED73C01BF
S1134A90DC0111961C930E931296EC9212971396C6
S1134AA0CC9213978D2D880F880FF82AEB2DF0E008
S1134AB0E357F84F8081982A8F2D892914968C9377
S1134AC0B3E0BB1518F481E0F3018583A11006C09F
S1134AD0D30119961C921E92189712C06A2D70E089
S1134AE084E090E0D8D62C0161E070E086E090E0AC
S1134AF0D2D66C014A2DB20199D4F301D186C08675
S1134B00811006C0D30117961C921E92169712C0EC
S1134B10682D70E084E090E0BED65C0161E070E056
S1134B2086E090E0B8D66C01482DB5017FD4F3013E
S1134B30D782C6828C899D89D3011B969C938E93C0
S1134B401A970115110559F0F801229181E090E0BE
S1134B5002C0880F991FEA94E2F7822B80832FB753
S1134B60F89440918E1750918F1770928F1760921E
S1134B708E17D301ED91FC911197309701F11396A3
S1134B808C911397813071F4308181E090E012961A
S1134B900C9002C0880F991F0A94E2F78095832332
S1134BA080830DC0308181E090E0D30112960C9097
S1134BB002C0880F991F0A94E2F7832B80835093D5
S1134BC08F1740938E172FBFC301DF91CF911F9191
S1134BD00F91FF90EF90DF90CF90BF90AF909F9098
S1134BE08F907F906F905F904F9008951F93CF9315
S1134BF0DF93009709F46AC0162FEC0180918E1799
S1134C0090918F17C817D90711F0CE01E4DE8FB742
S1134C102FB7F89480919017811131C081E080936F
S1134C209017A0918E17B0918F17ED91FC91119769
S1134C303097F9F013968C911397813069F4308191
S1134C4081E090E012960C9002C0880F991F0A949C
S1134C50E2F7832B80830DC0308181E090E01296CF
S1134C600C9002C0880F991F0A94E2F78095832361
S1134C7080838CB580688CBD1EBD80E025C0EE812C
S1134C80FF813097E1F03481838142819581841BD7
S1134C9089233817B1F083814281841B8923381713
S1134CA091F0838196959823A081B181A90FB11DBC
S1134CB01C938F5F95818923838380E005C082E004
S1134CC003C081E001C080E02FBF01C083E0DF9119
S1134CD0CF911F9108951F920F920FB60F92112436
S1134CE00BB60F922F933F934F935F936F937F93E2
S1134CF08F939F93AF93BF93CF93DF93EF93FF93E0
S1134D006EB5A0918E17B0918F171896ED91FC9106
S1134D1019973097A1F0838122819581821B892381
S1134D202481821761F0838196959823C081D18173
S1134D30C90FD11D68838F5F95818923838316965C
S1134D40ED91FC911797309799F093818281981790
S1134D5079F092818581282F26952923A081B1811C
S1134D60A20FB11D2C919F5F892382832EBD2DC07C
S1134D708CB58F778CBD10929017A0918E17B0913F
S1134D808F17ED91FC9111973097F9F013968C9150
S1134D901397813071F4208181E090E012960C9099
S1134DA002C0880F991F0A94E2F7809582238083BA
S1134DB00CC0208181E090E012960C9002C0880F14
S1134DC0991F0A94E2F7822B808380918E17909129
S1134DD08F17DC011A96ED91FC911B97309709F01F
S1134DE01995FF91EF91DF91CF91BF91AF919F9171
S1134DF08F917F916F915F914F913F912F910F9080
S1134E000BBE0F900FBE0F901F90189590E0FC0101
S1134E10EE0FFF1FE80FF91FEE0FFF1FEF56F84EBE
S1134E20238121111FC09C01220F331FF901E80FB8
S1134E30F91FEE0FFF1FEF56F84EA081B1814C9180
S1134E40F901E80FF91FEE0FFF1FEF56F84E81E04E
S1134E5090E0028002C0880F991F0A94E2F7842B25
S1134E608C930895FC01EE0FFF1FDF01A80FB91FFB
S1134E70AA0FBB1FAF56B84E0D90BC91A02D2C911C
S1134E80E80FF91FEE0FFF1FEF56F84E81E090E098
S1134E90028002C0880F991F0A94E2F7809582234A
S1134EA08C93089590E0FC01EE0FFF1FE80FF91FAB
S1134EB0EE0FFF1FEF56F84E2381211120C09C01F5
S1134EC0220F331FF901E80FF91FEE0FFF1FEF56F2
S1134ED0F84EA081B1814C91F901E80FF91FEE0F52
S1134EE0FF1FEF56F84E81E090E0028002C0880F69
S1134EF0991F0A94E2F7809584238C930895FC010A
S1134F00EE0FFF1FDF01A80FB91FAA0FBB1FAF567B
S1134F10B84E0D90BC91A02D2C91E80FF91FEE0F07
S1134F20FF1FEF56F84E81E090E0028002C0880F28
S1134F30991F0A94E2F7822B8C930895CC24C3948E
S1134F40D12C6894BB24B2F8C1E9D7E110E08C817C
S1134F50813081F018F1823061F5E881F981208196
S1134F60C6010A8002C0880F991F0A94E2F78227BB
S1134F7080831FC08D818F5F863010F48D8319C0AC
S1134F801D82E881F9812081C6010A8002C0880F50
S1134F90991F0A94E2F7822780830BC00D810023B6
S1134FA029F0812F7FDF01500D8303C0BC82812F44
S1134FB02DDF1F5F2696143051F66CE070E080E020
S1134FC090E00E94150FC0CFEF92FF920F931F93B2
S1134FD0CF93DF93082F80E487B9C1E9D7E10F2E7F
S1134FE0F8E2EF2EF12CF02DF982E88286E08A8334
S1134FF01B8214E01C8380E009DF80E887B9FF820C
S1135000EE8287E0888719861A8781E0FFDE80E2D6
S113501083BB84E390E09D878C8785E08E871F8621
S1135020188B82E0F3DE80E18093010182E091E05D
S11350309B8B8A8B1C8B1D8A1E8B83E0E7DEE12C05
S1135040F12C20E030E040EC50E064E977E08EE9B8
S113505097E20E94100CDF91CF911F910F91FF9066
S1135060EF900895CF93DF9390E0FC01EE0FFF1FC4
S1135070DF01A80FB91FAA0FBB1FAF56B84ECD91C1
S1135080DC911197488121E030E012960C90129740
S113509002C0220F331F0A94E2F724272883FD015C
S11350A081E08483DF91CF910895CF93DF9390E0E3
S11350B0FC01EE0FFF1FDF01A80FB91FAA0FBB1FD2
S11350C0AF56B84ECD91DC911197488121E030E084
S11350D012960C90129702C0220F331F0A94E2F723
S11350E024272883FD0182E08483DF91CF910895F2
S11350F08091B71781110CC08CE08093B8008FEFBA
S11351008093BB0084E08093BC0081E08093B71758
S11351100895AF92BF92CF92DF92EF92FF920F93D6
S11351201F93CF93DF93A82EB62E69017A0184E0F2
S113513090E0CBD3EC01892B61F1A88281E0B81215
S113514012C0C701B60120EA36E841E050E079D345
S1135150DA01C9014097A109B109B695A7959795B8
S11351608795898311C0C701B60120E83AE146E07A
S113517050E067D3DA01C9014097A109B109B69596
S1135180A7959795879589831B830A838C2F9D2FD9
S113519002C080E090E0DF91CF911F910F91FF90CA
S11351A0EF90DF90CF90BF90AF9008958091BC00B6
S11351B081700895FF920F931F93CF93DF9300970D
S11351C0D1F14A30D0F5F42E8B01EC01EFDF8111DF
S11351D036C08091AA179091AB17C817D90741F030
S11351E087DF89818093B800D093AB17C093AA1747
S11351F081E08F0D8093AC178881880F8093AD1761
S1135200FF2089F0F801AEEAB7E14FEF4F0D642FAC
S113521070E0CB010196B801680F791F81918D93DD
S1135220E617F707D9F788EF8093210285EA809380
S1135230BC0084E005C086E003C087E001C082E0D2
S1135240DF91CF911F910F91FF9008951F93CF93FA
S1135250DF93009729F16B3028F5162FEC01A6DFB8
S1135260811122C08091AA179091AB17C817D90752
S113527041F03EDF89818093B800D093AB17C0938F
S1135280AA171093AC178881880F81608093AD179B
S113529088EF8093210285EA8093BC0085E005C0F5
S11352A086E003C087E001C082E0DF91CF911F91C7
S11352B008951F920F920FB60F9211240BB60F92FE
S11352C02F933F934F935F936F937F938F939F930A
S11352D0AF93BF93EF93FF93E091B9008E2F90E0CB
S11352E0FC013897E135F10508F075C08827E458CA
S11352F0FF4F8F4FC8C21092A917E091A917809150
S1135300AC17E81770F481E08E0F8093A917F0E0D2
S1135310E355F84E80818093BB0085E88093BC0000
S113532072C084E98093BC008091AA179091AB1756
S1135330DC011296ED91FC911397309709F463C048
S113534020E040E050E064E019955DC0E091A917C9
S113535081E08E0F8093A9178091BB00F0E0E355A4
S1135360F84E80838091B900803411F41092A9170B
S11353702091A91730E08091AC1790E0019728178D
S1135380390724F485EC8093BC003DC085E8809304
S1135390BC0039C08091BB00E091A917F0E0E3554F
S11353A0F84E808384E98093BC008091AA17909181
S11353B0AB17DC011296ED91FC911397309719F11C
S11353C02091AC174DEA57E165E019951CC085EAB8
S11353D08093BC0018C08091B9008093210284E0BE
S11353E08093BC008091AA179091AB17DC011296B0
S11353F0ED91FC911397309731F020E040E050E0BC
S1135400609121021995FF91EF91BF91AF919F9106
S11354108F917F916F915F914F913F912F910F9059
S11354200BBE0F900FBE0F901F901895FC014111F9
S113543001C06CD3842F90E09C0121503109822358
S11354409323892B09F062D3413808F05FD3128289
S113545013824483440F415045837183608380E009
S113546090E008955058BB27AA270ED04DC13ED1D5
S113547030F043D120F031F49F3F11F41EF433C1D6
S11354800EF4E095E7FB29C1E92F4FD180F3BA1759
S1135490620773078407950718F071F49EF567C1D6
S11354A00EF4E0950B2EBA2FA02D0B01B90190013B
S11354B00C01CA01A0011124FF27591B99F0593F7F
S11354C050F4503E68F11A16F040A22F232F342FC7
S11354D04427585FF3CF469537952795A795F04015
S11354E05395C9F77EF41F16BA0B620B730B840B2A
S11354F0BAF09150A1F0FF0FBB1F661F771F881FE2
S1135500C2F70EC0BA0F621F731F841F48F4879539
S113551077956795B795F7959E3F08F0B3CF939528
S1135520880F08F09927EE0F9795879508950CD06A
S1135530EBC0E3D040F0DAD030F021F45F3F19F053
S1135540CCC0511115C1CFC0F0D098F39923C9F341
S11355505523B1F3951B550BBB27AA276217730775
S1135560840738F09F5F5F4F220F331F441FAA1F29
S1135570A9F333D00E2E3AF0E0E830D091505040E9
S1135580E695001CCAF729D0FE2F27D0660F771F97
S1135590881FBB1F261737074807AB07B0E809F079
S11355A0BB0B802DBF01FF2793585F4F2AF09E3F0E
S11355B0510568F092C0DCC05F3FECF3983EDCF329
S11355C0869577956795B795F7959F5FC9F7880F87
S11355D0911D9695879597F90895E1E0660F771FD9
S11355E0881FBB1F621773078407BA0720F0621B6A
S11355F0730B840BBA0BEE1F88F7E095089504D063
S11356006894B111B5C0089598D088F09F5790F070
S1135610B92F9927B751A0F0D1F0660F771F881FD3
S1135620991F1AF0BA95C9F712C0B13081F09FD012
S1135630B1E008959CC0672F782F8827B85F39F0B0
S1135640B93FCCF3869577956795B395D9F73EF432
S113565090958095709561957F4F8F4F9F4F0895DA
S1135660E89409C097FB3EF49095809570956195F8
S11356707F4F8F4F9F4F9923A9F0F92F96E9BB27AE
S11356809395F695879577956795B795F111F8CF2A
S1135690FAF4BB0F11F460FF1BC06F5F7F4F8F4F95
S11356A09F4F16C0882311F096E911C0772321F08B
S11356B09EE8872F762F05C0662371F096E8862F23
S11356C070E060E02AF09A95660F771F881FDAF77A
S11356D0880F9695879597F9089597F99F6780E8BD
S11356E070E060E008959FEF80EC089500240A9430
S11356F01616170618060906089500240A941216A9
S11357001306140605060895092E0394000C11F4DB
S1135710882352F0BB0F40F4BF2B11F460FF04C088
S11357206F5F7F4F8F4F9F4F089557FD9058440FE1
S1135730551F59F05F3F71F04795880F97FB991FEC
S113574061F09F3F79F087950895121613061406A9
S1135750551FF2CF4695F1DF08C016161706180636
S1135760991FF1CF86957105610508940895E89411
S1135770BB2766277727CB0197F908950BD0C4CFB1
S1135780B5DF28F0BADF18F0952309F0A6CFABCF28
S11357901124EECFCADFA0F3959FD1F3950F50E00B
S11357A0551F629FF001729FBB27F00DB11D639FCF
S11357B0AA27F00DB11DAA1F649F6627B00DA11D75
S11357C0661F829F2227B00DA11D621F739FB00D1B
S11357D0A11D621F839FA00D611D221F749F33278B
S11357E0A00D611D231F849F600D211D822F762F24
S11357F06A2F11249F5750408AF0E1F088234AF021
S1135800EE0FFF1FBB1F661F771F881F915050406C
S1135810A9F79E3F510570F060CFAACF5F3FECF32C
S1135820983EDCF3869577956795B795F795E79558
S11358309F5FC1F7FE2B880F911D9695879597F969
S11358400895A1E21A2EAA1BBB1BFD010DC0AA1FBD
S1135850BB1FEE1FFF1FA217B307E407F50720F0D5
S1135860A21BB30BE40BF50B661F771F881F991F50
S11358701A9469F760957095809590959B01AC0199
S1135880BD01CF010895EE0FFF1F881F8BBF079046
S1135890F691E02D19940F931F93CF93DF93869F76
S11358A08001879F100D969F100D1124C8010DD003
S11358B0EC01009721F0A80160E070E034D1CE0142
S11358C0DF91CF911F910F9108950F931F93CF9361
S11358D0DF938230910510F482E090E0E091BC17F0
S11358E0F091BD1720E030E0A0E0B0E0309719F16E
S11358F0408151810281138148175907C8F08417E8
S1135900950769F4109731F012960C931297139639
S11359101C9327C00093BC171093BD1722C02115F8
S1135920310519F04217530718F49A01BD01EF012C
S1135930DF01F801DBCF21153105F9F0281B390B04
S11359402430310580F48A819B816115710521F031
S1135950FB019383828304C09093BD178093BC178B
S1135960FE01329644C0FE01E20FF31F819391932E
S113597022503109398328833AC02091BA173091D3
S1135980BB17232B41F42091020230910302309380
S1135990BB172093BA172091000230910102211500
S11359A0310541F42DB73EB74091040250910502F0
S11359B0241B350BE091BA17F091BB17E217F307DC
S11359C0A0F42E1B3F0B2817390778F0AC014E5F6B
S11359D05F4F2417350748F04E0F5F1F5093BB17D6
S11359E04093BA178193919302C0E0E0F0E0CF01B5
S11359F0DF91CF911F910F910895CF93DF9300977B
S1135A0009F481C0FC01329713821282A091BC1761
S1135A10B091BD17109781F420813181820F931FBB
S1135A202091BA173091BB172817390751F5F09315
S1135A30BB17E093BA1767C0ED0120E030E0CE1742
S1135A40DF0740F44A815B819E0141155105F1F065
S1135A50EA01F5CFD383C28340815181840F951F1E
S1135A60C817D90759F488819981840F951F029624
S1135A70918380838A819B8193838283211531055D
S1135A8029F4F093BD17E093BC173DC0E901FB83F3
S1135A90EA8349915991C40FD51FEC17FD0761F4AE
S1135AA080819181840F951F0296E90199838883EF
S1135AB0828193819B838A83E0E0F0E012968D914A
S1135AC09C911397009719F0FD01DC01F7CF8D919C
S1135AD09C9111979D012E5F3F4F820F931F209140
S1135AE0BA173091BB172817390769F4309729F48E
S1135AF01092BD171092BC1702C013821282B09389
S1135B00BB17A093BA17DF91CF91089581E090E07D
S1135B10F89487C3FB01DC0102C001900D9241504F
S1135B205040D8F70895DC0101C06D9341505040B6
S1135B30E0F70895FB0151915523B1F0BF01DC0159
S1135B40052E4D91442369F010D0D9F7CD01019071
S1135B50002049F04D91411108D0C9F3FB014111D6
S1135B60EECF81E090E001970895402539F040326E
S1135B7029F440294B57465E08F018940895FB0118
S1135B80DC010D900020E9F7119701900D9200209F
S1135B90E1F70895FB01DC0101900D920020E1F78B
S1135BA00895FB01DC014150504088F08D9181340F
S1135BB01CF08B350CF4805E619161341CF06B3504
S1135BC00CF4605E861B611171F3990B0895881BB8
S1135BD0FCCFDC016C9161566A3108F0605E6F5B4A
S1135BE06D93C1F70895CF93DF93CDB7DEB7AE01C0
S1135BF04A5F5F4FFA0161917191AF018091C017C3
S1135C009091C11761D0DF91CF9108950F931F93A5
S1135C10CF93DF93E091C017F091C117238121FF47
S1135C201BC08C01D0E0C0E0F80181918F0160912C
S1135C30C0177091C117DB011896ED91FC9119976B
S1135C40882331F01995892B79F3DFEFCFEFECCF6F
S1135C508AE01995892B19F08FEF9FEF02C08D2FE1
S1135C609C2FDF91CF911F910F9108950F931F9354
S1135C70CF93DF93CDB7DEB72E970FB6F894DEBF80
S1135C800FBECDBF0E891F8986E08C831A830983DA
S1135C908FEF9FE79E838D83AE01465E5F4F688DD5
S1135CA0798DCE01019610D0EF81F885E00FF11FB8
S1135CB010822E960FB6F894DEBF0FBECDBFDF91D3
S1135CC0CF911F910F9108952F923F924F925F921F
S1135CD06F927F928F929F92AF92BF92CF92DF92F8
S1135CE0EF92FF920F931F93CF93DF93CDB7DEB75D
