S0100000534550342D496F542E73726563BF
S1130000E5C0000004C1000002C1000000C10000FE
S1130010FEC00000FCC00000FAC00000F8C00000F0
S1130020F6C00000F4C00000F2C00000F0C0000000
S1130030DCC30000ECC00000EAC00000E8C000001F
S1130040E6C00000E4C00000E2C00000E0C0000020
S1130050DEC000000C94861CDAC00000D8C000008A
S11300600C9442280C9423240C947524D0C00000D2
S1130070CEC00000CCC00000CAC00000C8C0000050
S1130080C6C00000C4C00000C2C00000C0C0000060
S11300900C94B9240C940B25BAC000000C944E2B7C
S11300A0B6C00000B4C00000B2C00000B0C0000080
S11300B0AEC00000ACC00000AAC00000A8C0000090
S11300C0A6C00000A4C00000A2C000000C944F25EC
S11300D00C94A1259CC000000C94E5250C943726B3
S11300E096C00000BD18BD18BD18F418FC181119ED
S11300F0BD18BD18F418FC18702BE02BE02BE02B76
S1130100E02BE02BE02BE02B702BE02BE02BE02B03
S1130110E02BE02BE02BE02B722BE02BE02BE02BF1
S1130120E02BE02BE02BE02BE02BE02BE02BE02B73
S1130130E02BE02BE02BE02B722BE02BE02BE02BD1
S1130140E02BE02BE02BE02BE02BE02BE02BE02B53
S1130150E02BE02BE02BE02BDC2BE02BE02BE02B47
S1130160E02BE02BE02BE02BA72BE02BE02BE02B6C
S1130170E02BE02BE02BE02BE02BE02BE02BE02B23
S1130180E02BE02BE02BE02B9B2BE02BE02BE02B58
S1130190E02BE02BE02BE02BBF2B0E940D0C809179
S11301A04516823008F05BD20E943A19F6CFCF93FD
S11301B0DF931F92CDB7DEB7CE0101960E943A16A7
S11301C049810E942F180E948618F6CF11241FBE61
S11301D0CFEFD1E2DEBFCDBF00E00CBF18E0A0E05E
S11301E0B2E0ECEFF5E600E00BBF02C007900D9221
S11301F0A833B107D9F728E1A8E3B8E001C01D92FC
S1130200A136B207E1F70E94171C0C94FC32F8CE19
S1130210E4E4F8E0A8E4B8E0B183A0831382128296
S1130220E0EFF5E1F0934308E09342081382128271
S11302301182108288EA9DE013969C938E93129704
S1130240ED93FC9390933F0880933E08909341086C
S11302508093400880E090E89093390880933808B0
S11302600895CF93DF93EC01A4E4B8E001C0DF016B
S1130270ED91FC911197EC17FD07C8F312968D913F
S11302809C9113979D01280F391FC217D30749F476
S11302902A813B81820F931F13969C938E9312970E
S11302A0ED018A819B819E01280F391FE217F30714
S11302B0C1F42091420830914308E217F30771F02A
S11302C022813381820F931F9B838A83ED91FC915A
S11302D01197808191819983888305C0398328830C
S11302E002C0F983E883CA17DB0711F0CD93DC93CE
S11302F0DF91CF910895EF92FF920F931F93CF93C5
S1130300DF938C010E94580D80914208909143081C
S1130310892B09F47DDF8091380890913908802376
S11303209123892B09F076C00115110549F0C80104
S113033004960817190718F000E010E001C08C01BA
S11303400115110509F469C0809140089091410894
S11303508017910708F464C0C0914408D0914508FF
S1130360E4E4F8E002C0FE01EC018A819B8180177D
S1130370910720F4888199810097A9F78091420818
S113038090914308C817D90709F44DC0E080F18063
S113039084E0E80EF11C88819981918380832A810D
S11303A03B81201B310B2930310548F0CE01800FF1
S11303B0911FFC01338322831B830A8352DF2A812A
S11303C03B818091400890914108821B930B90934C
S11303D041088093400840913E0850913F0884179B
S11303E0950720F490933F0880933E088091380845
S11303F090913908282B392B3B832A831982188240
S113040080913C0890913D08019690933D0880931B
S11304103C080BC0E12CF12C08C0E12CF12C05C0E8
S1130420E12CF12C02C0E12CF12C0E94980EE11475
S1130430F10411F40E944619C701DF91CF911F9175
S11304400F91FF90EF9008950F931F93CF93DF9335
S1130450009791F1EC0124974A815B81209138083F
S113046030913908BA0162237323672B29F168811B
S11304707981672B09F520953095242335233B8317
S11304802A830E94580D8A819B81209140083091D3
S11304904108820F931F9093410880934008CE0136
S11304A0E0DE80913A0890913B08019690933B08D6
S11304B080933A080E94980EDF91CF911F910F917B
S11304C00895FC010396928381834FEF5FEFBA0195
S11304D04383548365837683908787839287818758
S11304E010820895FC011386128608950F931F93BA
S11304F0CF93DF93EB01088119812A813B810F3F60
S11305004FEF14072407340721F4FC01A185B285B9
S113051011C0DC01139601C0DF011496ED91FC912A
S1130520159740815181628173810417150726074D
S1130530370790F71496ED91FC911597FD83EC83A2
S1130540D783C683BF83AE831596DC93CE9314976B
S11305509B878A87FC0120812F5F2083DF91CF91C5
S11305601F910F910895CF93DF93FC01A285B3856A
S1130570C481D581868197819F838E83C681D781EB
S1130580848195819D838C8311968D919C91129782
S1130590E817F90731F48681978112969C938E931C
S11305A01197138612868C9181508C938C91DF91D4
S11305B0CF910895A89590EC88E10FB6F894A8958A
S11305C0809360000FBE909360000895FC016083E7
S11305D0319770833197108231971082319720E8D8
S11305E02083319710823197108231971082779748
S11305F040833197508386970895DCDFA091B3162A
S1130600B091B416CD91CDBFDD91DEBFFF91EF91D6
S1130610DF91CF91BF91AF919F918F917F916F9116
S11306205F914F913F912F911F910F91FF90EF9008
S1130630DF90CF90BF90AF909F908F907F906F90FE
S11306405F904F903F902F901F900F900CBE0F9093
S11306500BBE0F900FBE0F90089581E008950F9286
S11306600FB6F8940F920BB60F920CB60F921F921E
S113067011242F923F924F925F926F927F928F92AA
S11306809F92AF92BF92CF92DF92EF92FF920F931D
S11306901F932F933F934F935F936F937F938F9306
S11306A09F93AF93BF93CF93DF93EF93FF93A09167
S11306B0B316B091B4160DB60D920EB60D920E94FB
S11306C0F40FA091B316B091B416CD91CDBFDD91C6
S11306D0DEBFFF91EF91DF91CF91BF91AF919F91D9
S11306E08F917F916F915F914F913F912F911F91C6
S11306F00F91FF90EF90DF90CF90BF90AF909F90BD
S11307008F907F906F905F904F903F902F901F90AD
S11307100F900CBE0F900BBE0F900FBE0F9008955C
S11307200F920FB6F8940F920BB60F920CB60F926D
S11307301F9211242F923F924F925F926F927F9259
S11307408F929F92AF92BF92CF92DF92EF92FF92DD
S11307500F931F932F933F934F935F936F937F93C5
S11307608F939F93AF93BF93CF93DF93EF93FF93B5
S1130770A091B316B091B4160DB60D920EB60D92AB
S113078013BE0E946C0D81110E94F40FA091B31648
S1130790B091B416CD91CDBFDD91DEBFFF91EF9145
S11307A0DF91CF91BF91AF919F918F917F916F9185
S11307B05F914F913F912F911F910F91FF90EF9077
S11307C0DF90CF90BF90AF909F908F907F906F906D
S11307D05F904F903F902F901F900F900CBE0F9002
S11307E00BBE0F900FBE0F9008959ADF1895DC0191
S11307F053962C915397222341F05A96ED91FC91F4
S11308005B9790818AE0891B089580E008950FB674
S1130810F8940F92FC01868D811102C081E001C021
S113082080E00F900FBE08950FB6F8940F92FC016C
S1130830268D878D281302C081E001C080E00F90CF
S11308400FBE08950F931F93CF93DF93EC01042FF2
S11308501E8D48A141110CC088819981892B09F012
S113086042C08C819D810E948C121D821C8242C0D8
S1130870011117C050E08A819B810E947F2F28A11B
S11308808A819B81820F911D9B838A832C813D8168
S11308908217930750F1888199819B838A8380E032
S11308A029C050E08E819F810E947F2F88A190E013
S11308B09195819591092E813F81280F391F3F839E
S11308C02E83488159812417350730F42C813D81CA
S11308D0820F931F9F838E83023049F4112349F0C2
S11308E0115080E007C080E005C080E003C080E0D4
S11308F001C080E01F5F1E8FDF91CF911F910F9188
S11309000895FC0140A14423A9F050E026813781D9
S1130910240F351F3783268384819581281739074F
S113092020F08081918197838683CB0166817781D2
S11309300C947F2F08951F93CF93DF93EC010FB690
S1130940F8940F921AA10BC08B89882351F0CE0121
S113095043960E94B21081110E94EE11115011169B
S11309609CF38FEF8AA30F900FBE0FB6F8940F92EB
S113097019A10BC08885882351F0CE0108960E94E6
S1130980B21081110E94EE11115011169CF38FEFD9
S113099089A30F900FBEDF91CF911F910895CF933C
S11309A0DF93EC010FB6F8940F92E881F9818F8DF3
S11309B028A190E030E0829FA001839F500D929F78
S11309C0500D11244E0F5F1F5D834C831E8EFB83DD
S11309D0EA830197289FA001299F500D389F500D4D
S11309E01124CF01840F951F9F838E838FEF89A3DA
S11309F08AA361110BC08885882371F0CE01089603
S1130A000E94B210882341F02ADE06C0CE01089667
S1130A1058DDCE01439655DD0F900FBE81E0DF9186
S1130A20CF9108950F931F93F801611103C01183AF
S1130A30008302C051834083878F60A361E0CF01AC
S1130A40AEDF1F910F910895DF92EF92FF920F9303
S1130A501F93CF93DF93F82EE62ED42E869FC001EA
S1130A601124839648DCEC01009741F08C012D2D74
S1130A70AC014D5D5F4F6E2D8F2DD4DFCE01DF9124
S1130A80CF911F910F91FF90EF90DF900895CF9237
S1130A90DF92EF92FF920F931F93CF93DF93CDB723
S1130AA0DEB729970FB6F894DEBF0FBECDBF7C0129
S1130AB06B012E833F834887598710E00FB6F89463
S1130AC00F92F701968D878D981710F00230B1F4CC
S1130AD0402FB601C701B6DEF7019389992341F08F
S1130AE0C70143960E94B210882321F0B8DD02C0EA
S1130AF08111B5DD0F900FBE81E04CC08E819F81C6
S1130B00A885B985892B8A2B8B2B21F40F900FBED6
S1130B1080E040C0111105C0CE0101960E947711FA
S1130B2011E00F900FBEC4D70FB6F8940F92F701DF
S1130B3081A18F3F09F411A2F70182A18F3F09F42B
S1130B4012A20F900FBEBE016A5F7F4FCE010196C5
S1130B500E948811811119C0C70166DE882381F0C3
S1130B604E815F8168857985C70108960E94591076
S1130B70C701E1DE0E94980E8111A0CF70DD9ECFE7
S1130B80C701D9DE0E94980E99CFC701D4DE0E9416
S1130B90980E80E029960FB6F894DEBF0FBECDBF45
S1130BA0DF91CF911F910F91FF90EF90DF90CF9045
S1130BB008950F93009769F0FC0115821482118245
S1130BC01082168200E020E030E0A90160E070E0CD
S1130BD05EDF0F910895CF93DF93482F60E081E0AB
S1130BE033DFEC01E6DFCE01DF91CF910895EF9280
S1130BF0FF920F931F93CF93DF938A01FC01568DCD
S1130C00378D531710F02230F9F4422F7801EC019C
S1130C101AA18E8DCE0116DE1F3F81F48B898823A5
S1130C20A9F0CE0143960E94B210882389F0E11402
S1130C30F10481F081E0F70180830DC0FF24F39477
S1130C40F10EFAA281E007C080E005C081E003C094
S1130C5081E001C081E0DF91CF911F910F91FF905E
S1130C60EF900895CF92DF92EF92FF920F931F932C
S1130C70CF93DF93CDB7DEB729970FB6F894DEBFD5
S1130C800FBECDBF8C016B012E833F8348875987EC
S1130C90E12C0FB6F8940F92F801F68CFF2099F02E
S1130CA0B601C8012EDEFA94F801F68E80858823F9
S1130CB031F0C80108960E94B2108111D0DC0F9067
S1130CC00FBE81E04FC08E819F81A885B985892B95
S1130CD08A2B8B2B21F40F900FBE80E043C0E110D0
S1130CE006C0CE0101960E947711EE24E3940F9082
S1130CF00FBEDED60FB6F8940F92F80181A18F3F94
S1130D0009F411A2F80182A18F3F09F412A20F90F5
S1130D100FBEBE016A5F7F4FCE0101960E9488110B
S1130D20811117C0C80173DD882379F04E815F817A
S1130D3068857985C80143960E945910C801FBDD76
S1130D40F7D78111A6CF8BDCA4CFC801F4DDF0D78F
S1130D50A0CFC801F0DDECD7C80159DD882309F420
S1130D6098CF80E029960FB6F894DEBF0FBECDBFB2
S1130D70DF91CF911F910F91FF90EF90DF90CF9073
S1130D800895EF92FF920F931F93CF93DF93CDB704
S1130D90DEB729970FB6F894DEBF0FBECDBF8C0126
S1130DA04E835F8368877987E12CF12C0FB6F89422
S1130DB00F92F801868D8823C9F08150868F808137
S1130DC09181892B29F40E944E13F8019583848321
S1130DD0F8018085882331F0C80108960E94B2107A
S1130DE081113DDC0F900FBE81E06FC08E819F8129
S1130DF0A885B985892B8A2B8B2B21F40F900FBEE4
S1130E0080E063C0F11006C0CE0101960E94771104
S1130E10FF24F3940F900FBE4BD60FB6F8940F92A5
S1130E20F80181A18F3F09F411A2F80182A18F3F3B
S1130E3009F412A20F900FBEBE016A5F7F4FCE016C
S1130E4001960E948811811126C0C801E0DC882324
S1130E50F1F0F80180819181892B51F40FB6F89457
S1130E600F92848195810E940512E82E0F900FBE87
S1130E704E815F8168857985C80143960E94591027
S1130E80C80159DD55D7811191CFE9DB8FCFC80156
S1130E9052DD4ED78BCFC8014EDD4AD7C801B7DC2F
S1130EA0882309F483CFEE2079F00FB6F8940F92DB
S1130EB0C8019DDC682FF801848195810E94E712A6
S1130EC00F900FBE80E001C080E029960FB6F89421
S1130ED0DEBF0FBECDBFDF91CF911F910F91FF9069
S1130EE0EF900895CF93DF93EC010FB6F8940F922F
S1130EF089A18F3F09F419A28AA18F3F09F41AA28C
S1130F000F900FBE8E8D811104C0CE0143960E94B6
S1130F107010CE0110DDDF91CF910895FC01448162
S1130F20558122813381240F351F80819181B9013C
S1130F30681B790BCB016417750710F0841B950BA4
S1130F4008950F93FC018FE0DF011D928A95E9F764
S1130F5075876487558344833783268306870F9177
S1130F600895AF92BF92CF92DF92EF92FF920F93C8
S1130F701F93CF93DF936C015B017A01FC01C28163
S1130F80D381048115810C1B1D0B4017510708F4F4
S1130F908A01F60184859585A801B5018C0F9D1FF2
S1130FA00E947F2F0E151F0558F4A701401B510BFB
S1130FB0B501600F711FF601848595850E947F2F0E
S1130FC0CE018E0D9F1DF601248135818217930772
S1130FD010F0821B930BF60193838283C701DF9188
S1130FE0CF911F910F91FF90EF90DF90CF90BF9022
S1130FF0AF900895CF92DF92EF92FF920F931F93D9
S1131000CF93DF931F921F92CDB7DEB77C016B01A4
S11310105A83498321153105C1F0FC01868580FD81
S113102008C04217530708F49A013A83298381E0E0
S11310300FC02017310758F042E050E0BE016F5F47
S11310407F4FC7018EDF81E003C080E001C080E0F4
S1131050882331F049815A81B601C70182DF02C079
S113106080E090E00F900F90DF91CF911F910F914E
S1131070FF90EF90DF90CF900895AF92BF92CF9200
S1131080DF92EF92FF920F931F93CF93DF937C0134
S11310905B01E9014217530708F4EA01209781F143
S11310A0F7010081118184819581801B910B6E0170
S11310B08C179D0708F46C01F70164857585600F32
S11310C0711FA601C5010E947F2FCC16DD0658F4BE
S11310D0AE014C195D09F70164857585C5018C0D58
S11310E09D1D0E947F2F0C0F1D1FF7018481958188
S11310F00817190710F0081B190BF7011183008357
S1131100CE01DF91CF911F910F91FF90EF90DF906F
S1131110CF90BF90AF9008956F927F928F929F92DD
S1131120AF92BF92CF92DF92EF92FF920F931F93F1
S1131130CF93DF931F921F92CDB7DEB76C014B01A3
S11311405A01790101151105B1F0FC01608071802B
S1131150A801BE016F5F7F4F90DF89819A81E01AF9
S1131160F10AA816B90630F4F60171826082A12C46
S1131170B12C01C05C019701A501B401C6017DDF5A
S11311800F900F90DF91CF911F910F91FF90EF90EF
S1131190DF90CF90BF90AF909F908F907F906F9093
S11311A00895CF92DF92EF92FF920F93CF93DF9344
S11311B0EC016B01413011F401E001C000E0C11405
S11311C0D10419F4CC24C394D12CCE014096C81771
S11311D0D90720F421968FD87C0102C0E12CF12C90
S11311E0E114F10439F09601AE01B701615F7F4F5C
S11311F0C701A7DEC701DF91CF910F91FF90EF9058
S1131200DF90CF9008950F930FB6F8940F92FC01DE
S113121020853185232B71F422853385232B61F4BA
S1131220268137814481558164857585068589DEEB
S113123081E003C080E001C080E00F900FBE0F91F9
S11312400895FC012481358180819181820F931F4F
S113125042815381841B950B01978217930710F0E9
S1131260821B930B08952F923F924F925F926F923D
S11312707F928F929F92AF92BF92CF92DF92EF9222
S1131280FF920F931F93CF93DF93CDB7DEB72B97C6
S11312900FB6F894DEBF0FBECDBF4C017B876A87C3
S11312A01A010E831F8328873987FC018481958165
S11312B00197268520FF0CC02A01F2E04F0E511C35
S11312C08415950558F41E821F821886198606C057
S11312D08417950710F02A0101C02C018E819F818B
S11312E0A885B985892B8A2B8B2B09F436C0CE01AE
S11312F00196E7D70FB6F8940F92C401A2DF3C0120
S11313008415950538F560E080E090E00E94201691
S11313100E94F211F401938782870F900FBEAE8072
S1131320BF80C884D984E12CF12C00E010E098013E
S113133040E050E0BA0180E00E946013F40113869B
S11313401286BE016A5F7F4FCE010196E1D78823E2
S113135089F205C00F900FBE02C0612C712C61147C
S1131360710419F4C4016DDF3C0182019301A101F0
S11313706A857B85C4013EDE6C01892BE9F0C401DA
S1131380CDDDF4012681378182179307A8F090D32D
S1131390F40180859185892B71F080859185E12CFC
S11313A0F12C00E020E030E0A90160E00E94071485
S11313B0F40111861086BCD4C6012B960FB6F8949E
S11313C0DEBF0FBECDBFDF91CF911F910F91FF9074
S11313D0EF90DF90CF90BF90AF909F908F907F90D1
S11313E06F905F904F903F902F900895AF92BF926F
S11313F0CF92DF92EF92FF920F931F93CF93DF93DD
S1131400EC017B015A0169018E8580FF04C08A01C9
S11314100E5F1F4F01C08A01CE0113DF9C01A5019D
S1131420B701CE01E7DD5C01892BC1F0CE0176DD89
S11314302E813F818217930788F088859985892BAF
S113144069F088859985E12CF12C00E020E030E0FA
S1131450A90160E00E94FE1419861886C501DF9177
S1131460CF911F910F91FF90EF90DF90CF90BF909D
S1131470AF9008954F925F926F927F928F929F9256
S1131480AF92BF92CF92DF92EF92FF920F931F938E
S1131490CF93DF93EC012B013A01580169018E854A
S11314A080FF05C06894882481F8912C02C0812CA7
S11314B0912CA114B104C104D10439F10FB6F894EC
S11314C00F92CE012BDD7C018816990640F060E076
S11314D080E090E00E94201685D7998788870F9036
S11314E00FBE8E149F04A0F0E12CF12C00E010E05C
S11314F0980140E050E0BA0180E00E946013198630
S11315001886CE010BDD7C0103C0CE0107DD7C0112
S11315108E149F04E8F484019701A301B201CE0163
S1131520FBDD6C01892BB1F0C3D28A859B85892BA5
S113153069F08A859B85E12CF12C00E020E030E005
S1131540A90160E00E9407141B861A86F1D302C029
S1131550C12CD12CC601DF91CF911F910F91FF9027
S1131560EF90DF90CF90BF90AF909F908F907F903F
S11315706F905F904F900895E0912D16F0912E1684
S1131580808181110CC08FEF9FEFDC018093F715F0
S11315909093F815A093F915B093FA150895E09176
S11315A02D16F0912E160780F085E02D8081918113
S11315B0A281B3818093F7159093F815A093F91540
S11315C0B093FA150895CF93DF93EC018B8D9C8D26
S11315D00E942402CE010E942402DF91CF9108953B
S11315E04F925F926F927F928F929F92AF92BF922F
S11315F0CF92DF92EF92FF920F93CF93DF932C0160
S11316005B014A013901E60165EA70E08B8D9C8D2E
S11316100E94882F8B8D9C8D21E0821A9108880E60
S1131620991EA114B10489F415C0822F90E0F5012C
S1131630E80FF91F3081DE01A80FB91F5D963C93B6
S11316408081882329F02F5F01C020E0203168F3D6
S11316501CA601C01D8E0A3008F009E00A8F0DA7F0
S11316601EA6CE0102960E947202CE010E960E9420
S11316707202DB87CA878AE090E0A0E0B0E0801BBA
S11316809109A109B1098E879F87A88BB98BDF8B3C
S1131690CE8B84E0FE01BF96DF011D928A95E9F7A7
S11316A01BAAA301B201C4010E94E60299838883A4
S11316B0E114F10419F0F701D183C083DF91CF91D4
S11316C00F91FF90EF90DF90CF90BF90AF909F90DD
S11316D08F907F906F905F904F900895CF93C0E06C
S11316E009C02BE0C29FC00111248B5B994E0E945C
S11316F06102CF5FCA30A8F38AE396E10E946102D7
S11317008FE296E10E94610280E296E10E9461020A
S113171085E196E10E94610289E096E10E946102FE
S11317208AE396E190932E1680932D168FE296E12C
S113173090932C1680932B16CF910895CF93DF931B
S1131740EC010FB6F8940F92809108168F5F809386
S113175008168091B3169091B416892B51F4D09346
S1131760B416C093B31680910816813091F4B6DF95
S113177010C08091021681110CC0E091B316F09153
S1131780B416928D8A8D891720F0D093B416C09325
S1131790B3168091FB158F5F8093FB15EA8D8091C2
S11317A003168E1710F4E09303168BE08E9FF0015E
S11317B01124EB5BF94E0180F281E02DFF83EE836F
S11317C02681378139872887A681B7819E012E5FBC
S11317D03F4F15963C932E93149737832683EA8DB7
S11317E08E9FF0011124EB5BF94EFD87EC8780811D
S11317F08F5F80830F900FBE80910216882351F073
S1131800E091B316F091B416928D8A8D981710F466
S11318100E942F03DF91CF910895CF93DF931BC0D4
S11318200FB6F8940F92E0911C16F0911D16C08526
S1131830D185CE0102960E94B30280910816815090
S113184080930816809114168150809314160F907B
S11318500FBECE01B8DE809114168111E1CFDF9165
S1131860CF9108958F929F92AF92BF92CF92DF92C1
S1131870EF92FF92CF93DF936B017C01C42F809092
S1131880041690900516A0900616B0900716809145
S1131890B3169091B41602960E94B3028FEFC81645
S11318A0D806E806F806B1F5CC23A1F1E9E0F6E1A3
S11318B0A181B281C091B316D091B416BF83AE8317
S11318C0C091B316D091B41616968D919C9117972A
S11318D0998788871696CD91DC9117978091B316D6
S11318E09091B41602969D838C838091B316909147
S11318F0B416029617969C938E931697A091B316DE
S1131900B091B4161D96FC93EE931C9780818F5F63
S113191080833FC0C80CD91CEA1CFB1CE091B316A1
S1131920F091B416C282D382E482F582C814D90439
S1131930EA04FB0468F46091B3167091B4168091C4
S11319402B1690912C166E5F7F4F0E94760221C059
S11319506091B3167091B41680912D1690912E1645
S11319606E5F7F4F0E9476028091F7159091F81573
S1131970A091F915B091FA15C816D906EA06FB0626
S113198040F4C092F715D092F815E092F915F09250
S1131990FA15DF91CF91FF90EF90DF90CF90BF9039
S11319A0AF909F908F9008952F923F924F925F92A5
S11319B06F927F928F929F92AF92BF92CF92DF925B
S11319C0EF92FF920F93CF93DF933C011B014A01E7
S11319D02901CA010E947B016C01892B71F084E307
S11319E090E00E947B01EC01892B19F0DC8ECB8EF8
S11319F006C0C6010E94240202C0C0E0D0E02097C5
S1131A0061F0A12CB12C6E019201A401B101C301BA
S1131A10E7DDCE0193DE81E001C08FEFDF91CF914E
S1131A200F91FF90EF90DF90CF90BF90AF909F9079
S1131A308F907F906F905F904F903F902F9008957C
S1131A40EF92FF920F930F2EF5EFEF2EF5E1FF2E9D
S1131A50F02D00E020E030E040EC50E06FE672E072
S1131A608DEC90E0A1DF813011F40E94C416813026
S1131A70C9F4F8948FEF9FEFDC018093F7159093EE
S1131A80F815A093F915B093FA1581E08093021626
S1131A90109204161092051610920616109207164C
S1131AA00E94FD02809106020F91FF90EF9008952D
S1131AB08091F4158F5F8093F41508950FB6F89410
S1131AC00F926091041670910516809106169091FC
S1131AD007160F900FBE0895CF92DF92EF92FF92F8
S1131AE0CF93DF938091F415811105C1C090041642
S1131AF0D0900516E0900616F09007168FEFC81ADE
S1131B00D80AE80AF80AC0920416D0920516E092A0
S1131B100616F0920716C114D104E104F104B1F4DD
S1131B2080912D1690912E1620912B1630912C1603
S1131B3030932E1620932D1690932C1680932B16EB
S1131B408091FC158F5F8093FC1516DD8091F7154D
S1131B509091F815A091F915B091FA15C816D90607
S1131B60EA06FB0620F480E0B2C081E001C080E018
S1131B70E0912D16F0912E16908191110CC04FEF2B
S1131B805FEFBA014093F7155093F8156093F91578
S1131B907093FA159CC0E0912D16F0912E160780D3
S1131BA0F085E02D0084F185E02D4281538164812C
S1131BB07581C416D506E606F70648F44093F71572
S1131BC05093F8156093F9157093FA1580C0A485A5
S1131BD0B585C681D781208531853F832E83C08515
S1131BE0D185268137813D832C8311964D915C915B
S1131BF012979F012E5F3F4F4217530731F44085E0
S1131C00518512965C934E931197158614869C9178
S1131C1091509C93A08DB18D109709F1C289D389FD
S1131C20448955895F834E83C489D5894289538900
S1131C305D834C8311966D917C911297AF01425F45
S1131C405F4F6417750731F44489558912965C9384
S1131C504E931197118E108E9C9191509C93A28D4E
S1131C60909103169A1710F4A09303169BE09A9F81
S1131C70D0011124AB5BB94E11960D90BC91A02DEF
S1131C80B783A68316964D915C9117975187408729
S1131C901696CD91DC9117973D832C8317963C9330
S1131CA02E931697A28D9A9FD0011124AB5BB94E47
S1131CB0B587A4879C919F5F9C93228DE091B31676
S1131CC0F091B416928D291708F04FCF51CFE091BF
S1131CD0B316F091B416E28D9BE0E99FF001112454
S1131CE0EB5BF94E9081923008F081E09091FD1504
S1131CF0911116C016C08091FE159091FF15A09108
S1131D000016B09101160196A11DB11D8093FE1518
S1131D109093FF15A0930016B093011680E001C0C4
S1131D2081E0DF91CF91FF90EF90DF90CF90089505
S1131D30CF92DF92EF92FF92CF93DF930FB6F89496
S1131D400F928091F41581508093F4158091F415CD
S1131D508111BEC080910816811188C0BCC0E09179
S1131D602716F09128160084F185E02DA08DB18D01
S1131D70C289D389848995899F838E83C489D589AF
S1131D80828993899D838C8311962D913C9112971E
S1131D90CF010E962817390731F484899589129654
S1131DA09C938E931197118E108E8C9181508C93ED
S1131DB0A485B585C681D781808591859F838E83CF
S1131DC0C085D185868197819D838C8311968D9161
S1131DD09C9112979F012E5F3F4F8217930731F416
S1131DE08085918512969C938E93119715861486FF
S1131DF08C9181508C93A28D809103168A1710F4D4
S1131E00A09303168BE08A9FD0011124AB5BB94EDB
S1131E1011960D90BC91A02DB783A68316964D9173
S1131E205C911797518740871696CD91DC9117974F
S1131E303D832C8317963C932E931697A28D8A9FED
S1131E40D0011124AB5BB94EB587A4878C918F5F09
S1131E508C93928DA091B316B091B4165A968C912E
S1131E60981730F081E08093FD1502C0E0E0F0E0C7
S1131E7080912016811173CFEF2B09F07DDBC09088
S1131E80FE15D090FF15E0900016F0900116C114D5
S1131E90D104E104F104A1F01FDE882319F081E0EC
S1131EA08093FD1581E0C81AD108E108F108A1F773
S1131EB01092FE151092FF15109200161092011642
S1131EC08091FD15882331F00E942F0381E003C027
S1131ED080E001C080E00F900FBEDF91CF91FF90B2
S1131EE0EF90DF90CF9008958F929F92AF92BF9220
S1131EF0CF92DF92EF92FF921F93CF93DF93EC0187
S1131F006A017B01D5DD8090041690900516A0909F
S1131F100616B090071688819981AA81BB81AC010D
S1131F20BD014C0D5D1D6E1D7F1D88169906AA0608
S1131F30BB0660F4481759076A077B0798F48416B0
S1131F409506A606B70680F010E013C04817590797
S1131F506A077B0758F084169506A606B70640F074
S1131F6010E007C010E005C011E003C011E001C09B
S1131F7011E0488359836A837B83112341F0CB01A9
S1131F80BA01681979098A099B0940E06BDCD0DE43
S1131F90811102C00E942F03812FDF91CF911F91E5
S1131FA0FF90EF90DF90CF90BF90AF909F908F9075
S1131FB00895CF92DF92EF92FF926B017C01672B21
S1131FC0682B692B39F074DD40E0C701B6014ADCA7
S1131FD0AFDE01C080E0811102C00E942F03FF9098
S1131FE0EF90DF90CF9008958091F415882321F02D
S1131FF081E08093FD1508951092FD15E091B316CC
S1132000F091B41620813181E091B316F091B416A9
S1132010838D948D8217930760F06091B31670914D
S1132020B416635E7F4F8091B3169091B4160E94EC
S113203052198091031601C08150282F30E09BE093
S1132040929FF001939FF00D1124EB5BF94E908168
S1132050992391F39BE0929FA001939F500D11242B
S1132060DF010180F281E02D0480F581E02D1296DC
S1132070FC93EE931197485B594EE417F50729F446
S113208044815581FD01528341839BE0929FF0017D
S1132090939FF00D1124EB5BF94E0180F281E02D4A
S11320A0208531853093B4162093B316809303169C
S11320B00895CF92DF92EF92FF926A017B016091C3
S11320C0B3167091B416625F7F4F0E94760241E0AE
S11320D0C701B601C7DBFF90EF90DF90CF90089562
S11320E0CF93DF93FC01CB01BA01A181B281C091EE
S11320F0B316D091B416BB8BAA8BC091B316D091F2
S1132100B41616964D915C9117975D8B4C8B169671
S1132110CD91DC9117974091B3165091B416425F5C
S11321205F4F5D834C834091B3165091B416425F68
S11321305F4F17965C934E931697A091B316B09188
S1132140B4165996FC93EE93589730813F5F3083D1
S1132150222319F06FEF7FEFCB01422F83DBDF9156
S1132160CF910895CF93DF93DC011796ED91FC9105
S113217018970084F185E02DA08DB18DC289D38993
S1132180848995899F838E83C489D589828993891B
S11321909D838C8311968D919C9112979F01225F50
S11321A03F4F8217930731F48489958912969C9343
S11321B08E931197118E108E8C9181508C938091F7
S11321C0F415811152C0A485B585C681D781808557
S11321D091859F838E83C085D185868197819D83D8
S11321E08C8311968D919C9112979F012E5F3F4F86
S11321F08217930731F48085918512969C938E9370
S11322001197158614868C9181508C93A28D8091A0
S113221003168A1710F4A09303168BE08A9FD0014B
S11322201124AB5BB94E11960D90BC91A02DB783D0
S1132230A68316964D915C91179751874087169601
S1132240CD91DC9117973D832C8317963C932E9365
S11322501697A28D8A9FD0011124AB5BB94EB58726
S1132260A4878C918F5F8C931CC040E256E1DA0105
S11322701196CD91DC911297D38BC28B8E819F8165
S1132280958B848B8E819F81DC0115963C932E93D4
S113229014973F832E83518F408FDA018C918F5F87
S11322A08C93928DE091B316F091B416828D8917B8
S11322B020F481E08093FD1501C080E0DF91CF918F
S11322C008950FB6F8940F922091FC15FC01208319
S11322D040910416509105166091061670910716E8
S11322E041835283638374830F900FBE08952091BA
S11322F0FC15FC0120834091041650910516609151
S1132300061670910716418352836383748308957C
S11323108F929F92AF92BF92CF92DF92EF92FF92F1
S11323200F931F93CF93DF93FB010FB6F8940F9293
S1132330C0900416D0900516E0900616F09007168B
S1132340DC0111960D911D912D913C91149746013C
S11323505701801A910AA20AB30A4081518162810D
S113236073814F3FBFEF5B076B077B0739F1EC01CC
S1132370B881A091FC15BA1759F0C016D106E2062F
S1132380F30630F0108211821282138281E017C0AA
S113239084169506A606B70658F4481959096A0919
S11323A07B094083518362837383A1DF80E007C08C
S11323B0108211821282138281E001C080E00F90AA
S11323C00FBEDF91CF911F910F91FF90EF90DF909F
S11323D0CF90BF90AF909F908F90089581E08093AD
S11323E0FD1508958091B3169091B41608958091C7
S11323F00216882331F08091F415811104C082E023
S1132400089581E0089580E008950F931F93CF937A
S1132410DF93FC01892B09F477C0828DA091B31658
S1132420B091B4165A969C91891708F063C04685FA
S1132430578560897189772394F0A091B316B09180
S1132440B4165A969C914AE050E060E070E0491B53
S113245051096109710946875787608B718B2485FF
S113246035854BE0849FC00111248B5B994E28175E
S11324703907B9F5EF018F010E5F1F4FC8010E94A4
S1132480B302E091B316F091B416E28DEA8F809115
S113249003168E1710F4E09303168BE08E9FF00161
S11324A01124EB5BF94E0180F281E02DFF83EE8372
S11324B02681378139872887A681B78115961C9391
S11324C00E93149717830683EA8D8E9FF0011124CF
S11324D0EB5BF94EFD87EC8780818F5F808381E021
S11324E016C0A091B316B091B4165A968C91828FEF
S11324F081E00DC095A5E091B316F091B416828DDC
S1132500981720F080E003C080E001C081E0DF91F3
S1132510CF911F910F9108950F931F93CF93DF9342
S1132520FC01892B09F449C086A5815086A7228D18
S113253095A5291709F443C0811143C0EF018F0108
S11325400E5F1F4FC8010E94B302EDA5EA8F8AE017
S113255090E0A0E0B0E08E1B9109A109B1098E873B
S11325609F87A88BB98B809103168E1710F4E09384
S113257003168BE08E9FF0011124EB5BF94E018072
S1132580F281E02DFF83EE83268137813987288706
S1132590A681B78115961C930E931497178306830F
S11325A0EA8D8E9FF0011124EB5BF94EFD87EC87D9
S11325B080818F5F808381E005C080E003C080E07C
S11325C001C080E0DF91CF911F910F9108950F9387
S11325D01F93CF93DF93FC01892B09F45AC085A57F
S11325E0861708F4862F928D891709F452C026A500
S11325F0213009F04EC0828F4685578560897189E4
S1132600772364F04AE050E060E070E0481B510931
S11326106109710946875787608B718B24853585DD
S11326204BE0949FC00111248B5B994E2817390706
S113263081F5EF018F010E5F1F4FC8010E94B302A5
S1132640EA8D809103168E1710F4E09303168BE045
S11326508E9FF0011124EB5BF94E0180F281E02D95
S1132660FF83EE832681378139872887A681B78146
S113267015961C930E93149717830683EA8D8E9FE9
S1132680F0011124EB5BF94EFD87EC8780818F5FAD
S11326908083DF91CF911F910F9108958091B3169C
S11326A09091B416892B39F0E091B316F091B416D9
S11326B086A58F5F86A78091B3169091B41608956E
S11326C04F925F926F927F92AF92BF92CF92DF92BE
S11326D0EF92FF920F931F93CF93DF932801390159
S11326E00FB6F8940F92E091B316F091B416C82F78
S11326F0D0E0EC0FFD1F83A9823071F1E091B31695
S1132700F091B416CE01880F991F880F991FE80F16
S1132710F91F87A590A9A1A9B2A9409550956095E4
S11327207095482359236A237B2347A750AB61AB99
S113273072ABE091B316F091B416EC0FFD1F81E07B
S113274083ABA114B104C104D10431F041E0C6014A
S1132750B50188D80E942F030F900FBE0FB6F894CE
S11327600F92E114F104A1F0E091B316F091B416C4
S1132770CE01880F991F880F991FE80FF91F87A5AD
S113278090A9A1A9B2A9F70180839183A283B383FD
S1132790E091B316F091B416EC0FFD1F83A98230BB
S11327A0E9F4E091B316F091B416CE01880F991FA5
S11327B0880F991FE80FF91F87A590A9A1A9B2A9AD
S11327C04094509460947094482259226A227B2247
S11327D047A650AA61AA72AA81E001C080E02091B4
S11327E0B3163091B416C20FD31F1BAA0F900FBE9D
S11327F0DF91CF911F910F91FF90EF90DF90CF90D9
S1132800BF90AF907F906F905F904F9008958F929C
S11328109F92AF92BF92EF92FF920F93CF93DF9369
S1132820DC010FB6F8940F92E114F10489F0E62F5D
S1132830F0E0EE0FFF1FEE0FFF1FE80FF91F87A454
S113284090A8A1A8B2A8F70180829182A282B38243
S113285070E0FD01E60FF71F83A992E093AB02300D
S113286001F118F4013031F04DC0033079F1043036
S1132870D1F148C0660F771F660F771FFD01E60F81
S1132880F71F87A490A8A1A8B2A8BA01A901482952
S113289059296A297B2947A750AB61AB72AB01E088
S11328A034C0660F771F660F771FFD01E60FF71F11
S11328B047A550A961A972A94F5F5F4F6F4F7F4F22
S11328C047A750AB61AB72AB01E01FC0660F771F27
S11328D0660F771FFD01E60FF71F27A730AB41AB4B
S11328E052AB01E012C0823079F0660F771F660F99
S11328F0771FFD01E60FF71F27A730AB41AB52ABA3
S113290001E003C001E001C000E0813009F069C0CA
S11329101C96ED91FC911D971696CD91DC9117971D
S113292018968D919C9119979F838E831896CD91BB
S1132930DC91199716968D919C9117979D838C83A2
S1132940818192819D012E5F3F4F8217930731F45D
S113295018968D919C911997928381831D961C9250
S11329601E921C978081815080835A96EC915A97CD
S1132970809103168E1710F4E09303168BE08E9F5C
S1132980F0011124EB5BF94E0180F281E02D1796E2
S1132990FC93EE9316974681578119965C934E9358
S11329A01897C681D7813D832C83378326835A9613
S11329B0EC915A978E9FF0011124EB5BF94E1D9612
S11329C0FC93EE931C9780818F5F80835A969C9131
S11329D0E091B316F091B416828D891710F40E9419
S11329E02F030F900FBE802FDF91CF910F91FF9097
S11329F0EF90BF90AF909F908F9008958F929F9289
S1132A00AF92BF92CF92DF92EF92FF920F93CF9348
S1132A10DF93DC01E114F10489F0E62FF0E0EE0F1E
S1132A20FF1FEE0FFF1FE80FF91F87A490A8A1A8AE
S1132A30B2A8F70180829182A282B38270E0FD0184
S1132A40E60FF71F93A982E083AB023001F118F47B
S1132A50013031F04DC0033079F10430D1F148C078
S1132A60660F771F660F771FFD01E60FF71F87A418
S1132A7090A8A1A8B2A8BA01A901482959296A298C
S1132A807B2947A750AB61AB72AB81E034C0660FC2
S1132A90771F660F771FFD01E60FF71F47A550A9A3
S1132AA061A972A94F5F5F4F6F4F7F4F47A750AB2C
S1132AB061AB72AB81E01FC0660F771F660F771F93
S1132AC0FD01E60FF71F27A730AB41AB52AB81E006
S1132AD012C0923079F0660F771F660F771FFD01E1
S1132AE0E60FF71F27A730AB41AB52AB81E003C021
S1132AF081E001C080E0913009F096C09091F41516
S1132B0091115FC01C96ED91FC911D971696CD9185
S1132B10DC91179718962D913C9119973F832E833A
S1132B201896CD91DC91199716962D913C91179793
S1132B303D832C83418152819D012E5F3F4F42177B
S1132B40530731F418964D915C9119975283418340
S1132B501D961C921E921C979081915090835A96B8
S1132B60EC915A97909103169E1710F4E093031674
S1132B709BE09E9FF0011124EB5BF94E0180F281F2
S1132B80E02D1796FC93EE9316974681578119967C
S1132B905C934E931897C681D7813D832C833783EA
S1132BA026835A96EC915A979E9FF0011124EB5B71
S1132BB0F94E1D96FC93EE931C9790819F5F908332
S1132BC021C060E276E1FB01C181D2815396DC939E
S1132BD0CE9352972E813F8155963C932E935497D2
S1132BE04E815F819D01225F3F4FFA01358324832B
S1132BF03F832E8359967C936E935897FB01908163
S1132C009F5F90835A962C91E091B316F091B4167D
S1132C10928D921748F4C114D10419F091E0F60191
S1132C20908391E09093FD15DF91CF910F91FF90E8
S1132C30EF90DF90CF90BF90AF909F908F900895CA
S1132C40009721F48091B3169091B4160FB6F894BE
S1132C500F9270E0FC01E60FF71F23A9223031F434
S1132C60FC01E60FF71F13AA81E001C080E00F907A
S1132C700FBE0895DC01E091BF16F091C01680816B
S1132C8091E0811190E09C93911108C00780F08538
S1132C90E02D6081718182819381089560E070E00C
S1132CA0CB010895CF92DF92EF92FF920F931F937F
S1132CB0FC0142835383648375839387828704175B
S1132CC0150726073707C0F00C191D092E093F09FF
S1132CD086859785A089B189081719072A073B07B4
S1132CE000F5BF016E5F7F4F8091BD169091BE16B7
S1132CF00E94760280E018C00C151D052E053F05C4
S1132D0028F44C155D056E057F0568F4BF016E5F00
S1132D107F4F8091BF169091C0160E94760280E08A
S1132D2003C081E001C081E01F910F91FF90EF90FB
S1132D30DF90CF9008950FB6F8940F928091BB1650
S1132D409091BC16892BE9F48CEC96E10E94610207
S1132D5081EC96E10E9461028CEC96E19093C0169E
S1132D608093BF1681EC96E19093BE168093BD16B6
S1132D7040E067E08AE00E9424059093BC168093AB
S1132D80BB160F900FBE0895EF92FF920F93D3DFFF
S1132D908091BB169091BC16892B91F00F2EF9EB04
S1132DA0EF2EF6E1FF2EF02D03E020E030E040ECC2
S1132DB050E064E772E087ED90E00E94D40C01C01B
S1132DC080E00F91FF90EF9008958F929F92AF92C1
S1132DD0BF92CF92DF92EF92FF920F931F93CF9304
S1132DE0DF93CDB7DEB727970FB6F894DEBF0FBEDB
S1132DF0CDBFE091BB16F091BC16309781F1698389
S1132E002A833B834C835D839F838E836630F4F4F3
S1132E10EEDA823069F400E0A7019601BE016F5F2B
S1132E207F4F8091BB169091BC160E94470518C035
S1132E3000E020E030E0A901BE016F5F7F4F809188
S1132E40BB169091BC160E9447050AC020E0A80159
S1132E50BE016F5F7F4FCF010E94F70501C080E084
S1132E6027960FB6F894DEBF0FBECDBFDF91CF918A
S1132E701F910F91FF90EF90DF90CF90BF90AF9094
S1132E809F908F9008958F929F92AF92BF92CF920E
S1132E90DF92EF92FF920F931F93CF93DF933BC088
S1132EA00780F085E02D80809180A280B380C0856A
S1132EB0D1858E010E5F1F4FC8010E94B302EC89B9
S1132EC0FD89CE0119958E8982FF25C08E859F8547
S1132ED0A889B989880D991DAA1DBB1D8816990654
S1132EE0AA06BB0670F48A839B83AC83BD83DB870D
S1132EF0CA87B8018091BF169091C0160E947602CD
S1132F000AC0C12CD12C760100E010E0A501940187
S1132F1060E0CE015ADFE091BF16F091C0168081C7
S1132F208111BECF8091BD169091BE169093C016AC
S1132F308093BF16F093BE16E093BD16DF91CF9138
S1132F401F910F91FF90EF90DF90CF90BF90AF90C3
S1132F509F908F900895CF92DF92EF92FF92CF933C
S1132F60DF93EC010E945E0D6B017C018091B5162C
S1132F709091B616A091B716B091B816C816D90696
S1132F80EA06FB0620F47FDF81E0888301C0188213
S1132F90C092B516D092B616E092B716F092B81653
S1132FA0C701B601DF91CF91FF90EF90DF90CF90F2
S1132FB008954F925F926F927F928F929F92AF92F9
S1132FC0BF92CF92DF92EF92FF920F931F93CF9312
S1132FD0DF934B015C0129013A01E091BF16F091A6
S1132FE0C0160780F085E02DC085D185CE010296FC
S1132FF00E94B3028E8982FF1BC04E855F8568895B
S11330007989480D591D6A1D7B1D75016401930161
S11330108201CE0147DE882369F0C12CD12C7601D0
S113302000E010E0A501940160E0CE01CEDE02C014
S11330308E7F8E8BEC89FD89CE011995DF91CF911E
S11330401F910F91FF90EF90DF90CF90BF90AF90C2
S11330509F908F907F906F905F904F9008958F9284
S11330609F92AF92BF92CF92DF92EF92FF921F9303
S1133070CF93DF931F92CDB7DEB76B017C01142F82
S11330800E94580DCE01019666DF4B015C018981D7
S113309081112DC011110DC08C149D04AE04BF0408
S11330A040F00E94980EA5019401C701B60181DF8A
S11330B020C0112341F0E091BD16F091BE1680812D
S11330C011E0811110E0B701A601481959096A09F4
S11330D07B09212F8091BB169091BC160E94720728
S11330E00E94980E811105C00E942F0302C00E9405
S11330F0980E0F90DF91CF911F91FF90EF90DF908A
S1133100CF90BF90AF909F908F900895AF92BF9251
S1133110CF92DF92EF92FF920F931F93CF93DF939F
S1133120CDB7DEB728970FB6F894DEBF0FBECDBF7C
S113313082C0898188230CF47EC0AE80BF80D50113
S11331401C968D919C911D97892B21F0C5010296A7
S11331500E94B302CE010896FEDE8B019C01E98138
S11331600E2E000CFF0BEA30F10508F064C088272E
S1133170EE58FF4F8F4F0C94382EF50186898160ED
S1133180868BCA80DB80EC80FD804685578560890C
S113319071894C0D5D1D6E1D7F1DC50183DD882366
S11331A009F449C0D5015496ED91FC915597C50198
S11331B01995F501868982FF3EC04A815B816C8145
S11331C07D8186859785A089B1899A01AB01280FF5
S11331D0391F4A1F5B1FC12CD12C760100E010E07F
S11331E060E0C501F2DD27C0D50156968C91569753
S11331F08E7F56968C931FC0F50186898160868BDD
S11332004A815B816C817D8146875787608B718B96
S1133210400F511F621F731F68017901C50142DD10
S11332200AC0F501868981FD04C0C5010E942402FB
S113323002C08E7F868B20E030E0A901BE016F5F63
S11332407F4F8091BB169091BC160E94320681116B
S113325070CF28960FB6F894DEBF0FBECDBFDF91B6
S1133260CF911F910F91FF90EF90DF90CF90BF907F
S1133270AF900895089584B1806884B985B1806859
S113328085B9089583B1806883B90895F4DF2FEF79
S113329080E792E0215080409040E1F700C00000B8
S11332A0F1DFF5CFE8DF2FEF87EA91E62150804088
S11332B09040E1F700C00000E5DFF5CF0F931F93C6
S11332C0CF93DF93CDB7DEB764970FB6F894DEBF24
S11332D00FBECDBF81E00E94092AAAD50E94952184
S11332E09F938F938CE792E09F938F930E94DE2F9E
S11332F01DD70E9495219F938F938FE892E09F930F
S11333008F930E94DE2F8E010F5F1F4FC801A2D53D
S11333100E9495211F930F939F938F9388EA92E0C5
S11333209F938F930E94DE2FC801B0D5FED79F9341
S11333308F931F930F938CEB92E09F938F930E9434
S1133340DE2FA80161ED72E082EF92E0CDD7EDD7D8
S11333509F938F931F930F9381ED92E09F938F938D
S113336082EF92E09F938F9383E093E09F938F93F8
S11333700E94DE2FBED5D9D79F938F9389E393E024
S11333809F938F930E94DE2F0FB6F894DEBF0FBE7B
S1133390CDBF81E0A8D6C9D79F938F9388E493E0EB
S11333A09F938F930E94DE2F84EF91E0A7D6BDD721
S11333B09F938F9381E08F9384EF8F9389E693E0BB
S11333C09F938F930E94DE2F0FB6F894DEBF0FBE3B
S11333D0CDBF1AE080E093D5082FA7D79F938F9392
S11333E01F921F9389E893E09F938F930E94DE2F8F
S11333F00F900F900F900F900F900F90083041F0A6
S113340066E371E080E090E00E94D90F115011F75B
S1133410083039F481E00E944F2A89EA93E00E943F
S1133420F12F64960FB6F894DEBF0FBECDBFDF91C7
S1133430CF911F910F91089581E0ECD462E070E088
S113344080E090E00E94D90F80E0E4D466E970E067
S113345080E090E00E94D90F96D430DF0E942F03C1
S1133460FDCFEF92FF920F93E12CF12C082F20E077
S113347030E048E851E06CEB73E08CE19AE10E94A3
S1133480D40C0F91FF90EF900895DC01E7EDF6E185
S113349086E0818382E080834C9111965C91119740
S11334A012962C91129713963C91139714968C9123
S11334B0149715969C915283438334832583968372
S11334C08783BF0180E044D530D79F938F9383ECEB
S11334D093E09F938F930E94DE2F0F900F900F9095
S11334E00F900895CF93DF9300D01F92CDB7DEB72E
S11334F00E945E0D69837A838B839C834FEF5FEF19
S1133500BA0180915518909156180E94C1068823DB
S113351061F088ED93E00E94F12F0E949B228823A2
S113352021F086EF93E00E94F12F4BEB50E060E036
S113353070E0CE0101960E94740FE0CFCF93DF9329
S113354000D01F92CDB7DEB70E945E0D69837A83E7
S11335508B839C834FEF5FEFBA0180915318909156
S113356054180E94C1068823B9F182E00E942C2AD3
S113357087E194E00E94F12F82D2882321F08EE328
S113358094E00E94F12F44E650E060E070E0CE0148
S113359001960E94740F88D2882321F087E594E075
S11335A00E94F12F44E650E060E070E0CE01019605
S11335B00E94740F61D2882379F082E00E945E2A0F
S11335C000E020E030E0A90160E070E08091531851
S11335D0909154180E9447054BEB50E060E070E076
S11335E0CE0101960E94740FB5CF0F9300E020E046
S11335F030E0A90160E070E0809155189091561870
S11336000E9447050F910895CF93DF93CDB7DEB79E
S11336102C970FB6F894DEBF0FBECDBF4FEF5FEF10
S1133620BA0180915518909156180E94C1064FEF27
S11336305FEFBA0180915318909154180E94C1060B
S11336400E945E0D69877A878B879C8743E557E0E4
S113365060E070E0CE0109960E94740F82E794E066
S11336600E94F12F00E020E030E0A90160E070E06A
S113367080915518909156180E94470520E030E03B
S1133680A90160E070E080915318909154180E9451
S1133690470560ED77E080E090E00E94D90F4FEF9E
S11336A05FEFBA0180915518909156180E94C10697
S11336B08823A9F0CE0101966DD71F928F938A813A
S11336C08F9389818F9383E994E09F938F930E94D2
S11336D0DE2F0F900F900F900F900F900F904FEFE1
S11336E05FEFBA0180915318909154180E94C1065B
S11336F08823D9F025D2182FF92E9F938F9383EA2C
S113370094E09F938F930E94DE2FF4D1E82ED92E5C
S11337109F938F938EEA94E09F938F930E94DE2F62
S11337200FB6F894DEBF0FBECDBF89819A818F8317
S11337309887ED82DE821B83FC829F938F93DF92B6
S1133740EF92FF921F938DEB94E09F938F930E94CF
S1133750DE2FCE01039699DE0FB6F894DEBF0FBEBE
S1133760CDBF74CFEF92FF920F9380915518909133
S11337705618892B39F481E00E94EB059093561872
S1133780809355188091531890915418892B39F4CB
S113379081E00E94EB059093541880935318E12C18
S11337A0F12C01E020E030E040EC50E066EE74E003
S11337B082E79AE10E94D40C20E030E040EC50E033
S11337C061EF74E08EE99AE10E94D40C02E020E0FB
S11337D030E040EC50E061E075E084E09BE10E9461
S11337E0D40C0F91FF90EF90089581B1816881B955
S11337F080E00E949926B6DF85E00E94BB2960E044
S113380070E081E0C7D282E090E02BDE80E090E0BF
S11338103FD033D019D1882321F08EE095E00E9467
S1133820F12F83E05ED685EF9AE180C60895DDDF4F
S11338308CE295E00E94F12F0E94200D84E495E033
S11338400E94F12FFFCF81B38F6081BB2898289A03
S113385021B381E090E000901D1702C0880F991FEA
S11338600A94E2F78095822381BBE091ED16F091F2
S1133870EE16309709F01995089585B5856085BDD4
S1133880089585B5887F85BD81B38F6081BB089518
S11338908F92AF92CF92EF920F931F93CF93DF93B8
S11338A0EC0180B38F6080BB81B38F6081BB209AB1
S11338B083E29CE19F938F93812CA12CC12CE12C5A
S11338C000E010E020E240E063E080E10E94FB269B
S11338D090931F1780931E1789E187BD84B582607A
S11338E084BDEEE6F0E0808182608083CADFD093FD
S11338F0EE16C093ED160F900F90DF91CF911F91AC
S11339000F91EF90CF90AF908F9008951F920F92E8
S11339100FB60F9211240BB60F922F933F934F9330
S11339205F936F937F938F939F93AF93BF93EF9323
S1133930FF938091F016882369F12091F11630915C
S1133940F216253F91E0390738F42F5F3F4F30934B
S1133950F2162093F1161EC01092F2161092F11670
S1133960E091EF162E2F30E090E0049728173907E6
S113397014F4EF5F01C0E0E0E093EF16F0E0ED50E7
S1133980F94EA9E1B7E12DE137E181918D93A217B9
S1133990B307D9F780911D1790E001968370907852
S11339A0992324F401978C6F9F6F019680931D17C0
S11339B09927FC01E75EF84E6081609580911E179F
S11339C090911F170E94CD27FF91EF91BF91AF9166
S11339D09F918F917F916F915F914F913F912F9123
S11339E00F900BBE0F900FBE0F901F90189565306F
S11339F0F1F4FA0180818F7390E0982F8827218158
S1133A00822B90930A02809309028281F0E48F9FB3
S1133A10C0011124FA01238126952695822B9093C7
S1133A2008028093070281E0809320170895643090
S1133A3051F080E090E49093080280930702909301
S1133A400A028093090208950F931F9307EF1CE164
S1133A5020E034E244EF50E060E087E20E947E2AF6
S1133A60909322178093211721E0892B09F020E0FD
S1133A70822F1F910F9108958091201708958091AE
S1133A80211790912217009759F040E060E070E010
S1133A900E94CF2A843031F41092201780E00895D8
S1133AA082E0089583E00895809121179091221770
S1133AB0009739F064E00E941B2B853021F083E0ED
S1133AC0089582E0089580E008956091090270915C
S1133AD00A0280E090E00E94252D20E030E048ECCE
S1133AE052E40E94B32D20E038EF4FE756E40C94E3
S1133AF08C2C0895EADF20E030E040E251E40E949B
S1133B00B32D0E94F92CCB010895609107027091A6
S1133B10080280E090E00E94252D20E030E045E29C
S1133B2053E40E94B32D20E038EF4FE756E40E949F
S1133B308C2C20E030E040E252E40C94272C0895D1
S1133B40E4DF20E030E040E251E40E94B32D0E9423
S1133B50F42CCB0108950F931F93CF93DF931F92FF
S1133B601F92CDB7DEB78C0119822DC0E0915A1790
S1133B70EC3250F481E08E0F80935A17F0E0E45752
S1133B80F84E8A81808302C010925A178A818A3043
S1133B90D1F440915A1750E0FA01E657F84E1082DA
S1133BA0415051099E012F5F3F4F6CE877E18091AE
S1133BB05D1790915E170E94F609898181110E9418
S1133BC02F0310925A17BE016E5F7F4FC8011BD698
S1133BD0882361F20F900F90DF91CF911F910F9185
S1133BE008950F931F93CF93DF938C01EB01809182
S1133BF05D1790915E170E940309B80183E297E173
S1133C000E94BF2F209779F0E3E2F7E101900020B2
S1133C10E9F7319780E290E091838083BE0183E2EB
S1133C2097E10E94B42FE3E2F7E1DF010D90002059
S1133C30E9F711978DE09AE011969C938E93129672
S1133C401C9201900020E9F73197E352F741AE2F1F
S1133C5083E297E1AC016A2F80915F17909160171E
S1133C607DD5811111C008E215E020E030E04DE27D
S1133C7050E066EE77E180915D1790915E170E94A7
S1133C803A0A86EE97E102C080E090E0DF91CF919E
S1133C901F910F9108952F923F924F925F926F92CE
S1133CA07F928F929F92AF92BF92CF92DF92EF92C8
S1133CB0FF920F931F93CF93DF935C01FC0101905C
S1133CC00020E9F731976F01C81AD90A5C2C0F2E2E
S1133CD0F5EF8F2EF7E09F2EF02DE12CF12C4C2CDC
S1133CE03701F40101811281E80109900020E9F70C
S1133CF02197C01BD10B3C2EF9E0CF16D10458F00C
S1133D00F4012080FEE02F1206C0B801C5010E9414
S1133D108F2F892B09F5442D351408F44C2F50E0CE
S1133D20B801C5010E94C62F892B49F4F301EE0F97
S1133D30FF1FE60DF71DEB50F84F20800DC08FEFED
S1133D40E81AF80AE3E08E0E911CF1E1EF16F10493
S1133D5039F66894222424F8822DDF91CF911F91A3
S1133D600F91FF90EF90DF90CF90BF90AF909F9016
S1133D708F907F906F905F904F903F902F90089519
S1133D8030DF89CF089580915D1790915E170C9470
S1133D90030908958F929F92AF92CF92EF920F935F
S1133DA01F93CF93C82F8B0141E060E070E088EC53
S1133DB090E00E94D10890935E1780935D17109352
S1133DC05C1700935B170F2EFBEA8F2EFDE19F2EED
S1133DD0F02D6894AA24A6F86894CC24C6F8E12CA3
S1133DE000E023E040E051EE60E070E08C2FE3D38C
S1133DF09093601780935F17E7E0F1E08081806122
S1133E008083CF911F910F91EF90CF90AF909F90AF
S1133E108F900895882331F0E8E0F1E080818F7E6F
S1133E2080830895E8E0F1E08081806180830895D3
S1133E3060E070E08BE795E0D4DEE6EEF7E1019018
S1133E400020E9F73197E65EF74181E0759708F0C5
S1133E5080E00895CF93DF93EC0160E070E08CE89C
S1133E6095E0BFDEE6EEF7E101900020E9F7E75FB9
S1133E70F74139F466EE77E1CE010E94BF2F80E06E
S1133E8002C0188281E0DF91CF910895FC01019076
S1133E900020E9F79F01215131092817390729F436
S1133EA0BC018AEB95E06CCF089589E00895FC018C
S1133EB001900020E9F79F012151310928173907A2
S1133EC029F4BC0189EC95E05BCF089589E008955D
S1133ED0FC0101900020E9F79F01215231092817C4
S1133EE0390729F4BC0188ED95E04ACF089589E0AB
S1133EF0089560E070E087E196E042CF08950F9363
S1133F001F93E82FF0E0EE0FFF1FEF50F84F608192
S1133F10718180E296E034DF811114C008E215E07B
S1133F2020E030E04DE250E066EE77E180915D17ED
S1133F3090915E170E943A0A882321F086EE97E159
S1133F40AADE03C086EE97E1A6DE1F910F910895C5
S1133F500F931F93CF93DF931F92CDB7DEB7DB018F
S1133F6011969C911197953108F0B4C0992381F171
S1133F7060E070E0272F30E0462F50E0FD01E40FB1
S1133F80F51F928192959F709A3010F0995C01C050
S1133F90905DF901E958F84E90832F5F3F4FFD0182
S1133FA0E40FF51F92819F70492F50E04A3051056C
S1133FB014F0995C01C0905DF901E958F84E9083C2
S1133FC07E5F6F5F11969C911197691798F201C0FB
S1133FD070E0E72FF0E0E958F84E10824C9181111F
S1133FE003C089E296E002C08BE296E027E737E15E
S1133FF03F932F931F924F939F938F938FE296E05B
S11340009F938F9389EB97E19F938F930E94213025
S113401060E070E089EB97E1B3DE0FB6F894DEBFA1
S11340200FBECDBF811159C008E215E020E030E099
S11340304DE250E066EE77E180915D1790915E1756
S11340400E943A0A882309F447C086EE97E123DEEA
S11340508E3009F042C087E0898380915B1790918C
S11340605C17892BA9F1BE016F5F7F4F86EE97E144
S113407068D180936117E981F0E0EA51F84EDF01DD
S11340800D900020E9F71197AE1BBF0BAA2391F006
S1134090BB27CD0101979C0112F42F5F3F4F35954B
S11340A0279520936217AF014F5F5F4F64E183E66A
S11340B097E173D101E010E020E030E046E150E008
S11340C061E677E180915B1790915C170E94330958
S11340D08EE003C084E101C080E00F90DF91CF91B6
S11340E01F910F910895813019F06FE376E002C0BB
S11340F068E177E083E496E043CE08959F938F933D
S113410084E796E09F938F9389EB97E19F938F9336
S11341100E94213060E070E089EB97E131DE0F907E
S11341200F900F900F900F900F9008952F923F9241
S11341304F925F926F927F928F929F92AF92BF92B3
S1134140CF92DF92EF92FF920F931F93CF93DF935F
S1134150CDB7DEB7A0970FB6F894DEBF0FBECDBFC4
S113416061EA76E08DEA96E03CDD95DD8111A3C03D
S113417080E2E2E2F2E0DE01119601900D928A956E
S1134180E1F79E012F5F3F4F6901E12CF12C0F2EC7
S1134190F9EBAF2EF6E0BF2EF02D09EB17E10F2E51
S11341A0F2ED4F2EF6E05F2EF02D0F2EF9EE8F2E4E
S11341B0F6E09F2EF02D0F2EF3E06F2EF7E07F2E0A
S11341C0F02D3E2C2F2CFF92EF92BF92AF921F93B3
S11341D00F930E94213060E070E0C80102DD5BDDD6
S11341E00F900F900F900F900F900F90811163C05C
S11341F032E03E15E8F4F60183818F9382818F9338
S113420081818F9380818F93FF92EF925F924F927F
S11342101F930F930E94213060E070E0C801E1DC3D
S11342203ADD0FB6F894DEBF0FBECDBF811143C097
S11342302F923F929F928F921F930F930E9421304F
S113424060E070E0C801CDDC26DD0F900F900F9088
S11342500F900F900F9081112EC02F923F927F925A
S11342606F921F930F930E94213060E070E0C801A9
S1134270B8DC11DD0F900F900F900F900F900F90FE
S1134280811119C03FEFE31AF30A84E0C80ED11C70
S113429098E0E916F10409F094CF60E070E08BE156
S11342A097E09FDCF8DC811106C060E070E08CE2EE
S11342B097E097DCF0DCA0960FB6F894DEBF0FBE53
S11342C0CDBFDF91CF911F910F91FF90EF90DF90C1
S11342D0CF90BF90AF909F908F907F906F905F90A2
S11342E04F903F902F900895EF92FF920F931F935A
S11342F0CF93DF93EC018B017A0181E0F4DE81112D
S11343000DC0CE01D4DD811109C0C801E1DD8111E8
S113431005C0C701BBDD811101C0EBDDDF91CF9189
S11343201F910F91FF90EF90089590E0FC01EE0F24
S1134330FF1F8E0F9F1FFC01EB50F84F818192816C
S11343400895DC01009729F1FB012081FC01019013
S11343500020E9F73197E81BF90B822F90E0E8176A
S1134360F907C8F080E008C0880F382F330F330FE7
S1134370830F8053890F2F5FFD01E20FF11D9081A0
S113438030ED390F3A3010F49111EECFFB01208358
S1134390089580E0089580E008950F931F93CF93CC
S11343A0DF93DC01EA012097E1F1FA01019000209A
S11343B0E9F73197E41BF50B329710F532C08D0104
S11343C0040F151F30E0AE01420F531FFA01908114
S11343D0913428F09753592F5295507F03C0592F89
S11343E05295507F2C0F3D1FF9019181913410F0AB
S11343F0975301C09053950FF80190838F5F01C0CC
S113440080E0282F220F482F50E0FE010190002069
S1134410E9F73197EC1BFD0B4E175F0710F4861379
S1134420CECFDF91CF911F910F91089580911618EF
S1134430860F8093161890911918913079F028F00E
S11344409230A9F0933019F108956F3F09F048C0F4
S11344501092161881E0809319180895663809F0AF
S11344603FC01092151882E0809319180895E091C6
S1134470151881E08E0F80931518F0E0ED5EF74E6D
S11344806083823069F583E08093191808959091D0
S1134490151821E0290F20931518963009F581117C
S11344A00EC0E3E1F8E1808190E0982F8827218114
S11344B0820F911D90931B1880931A1804C01092B8
S11344C01B1810921A1810921918E0911718F091ED
S11344D01818309729F080911A1890911B18199583
S11344E008958F929F92AF92CF92EF920F930F2ED7
S11344F0F6E18F2EF2E29F2EF02D6894AA24A4F800
S11345006894CC24C4F8E12C00E023E040E855E2B0
S113451060E070E050D090931D1880931C180F91A8
S1134520EF90CF90AF909F908F900895909318182C
S1134530809317180895CF93DF93CDB7DEB72997EB
S11345400FB6F894DEBF0FBECDBF89E0E2E4F2E01F
S11345509E012F5F3F4FD90101900D928A95E1F79B
S113456010921B1810921A1880911C1890911D1803
S1134570009731F0422F532F69E0F0D080E001C062
S113458082E029960FB6F894DEBF0FBECDBFDF914F
S1134590CF91089520911A1830911B1821153105D7
S11345A029F4FC011182108281E00895FC01318319
S11345B0208380E008952F923F924F925F926F92F2
S11345C07F928F929F92AF92CF92EF92FF920F932E
S11345D01F93CF93DF93CDB7DEB7F82E2A013B01AB
S11345E088E090E00E945A2E8C018F2D90E0FC010F
S11345F0EE0FFF1FE25EF74E1183008301151105D4
S113460009F46FC0880F991FFC01E55FFD4F80819D
S11346109181D8018D939C938C2D90E0880F991FE4
S1134620880F991F0E945A2E1C0186E090E00E9478
S11346305A2E7C014C2DB1010E940B2CF801F582FD
S1134640E4828A2D90E0880F991F880F991F0E9499
S11346505A2E1C0186E090E00E945A2E7C014A2DBD
S1134660B1010E940B2CD8011396FC92EE92129782
S113467017969C928E921697FFB6F894ED91FC9142
S1134680119736978081826080838D909C90C301BE
S1134690B2010E94252D20E030E040E051E40E9468
S11346A0B32D9B01AC0160E074E284E79BE40E94BB
S11346B08C2C20E030E040E85FE30E94272C0E942D
S11346C0F92CF40132976083D801ED91FC91119794
S11346D0359788E98083ED91FC91349786E0808357
S11346E0FFBEC801DF91CF911F910F91FF90EF9012
S11346F0CF90AF909F908F907F906F905F904F90EE
S11347003F902F900895CF93DF93DC01892B01F123
S11347101296ED91FC911397938182812581981BC8
S1134720922384819817B1F0838126952823C08130
S1134730D181C20FD11D68838F5F958189238383C3
S1134740ED91FC91359780818062808380E003C085
S113475081E001C082E0DF91CF910895EF92FF9252
S11347600F931F93CF93DF937C01009709F441C00B
S1134770DC011296ED91FC91139793818281981B31
S1134780858198238481891B8617A8F1662341F1CA
S1134790842F952FDC016150462F50E04F5F5F4F0F
S11347A0480F591FE701EA81FB81938182812581AA
S11347B0981B92238481981779F08C919381269584
S11347C02923608171818B01020F111DE801888307
S11347D09F5F8581982393831196A417B50711F7DA
S11347E0D701ED91FC91359780818062808380E0D0
S11347F003C081E001C082E0DF91CF911F910F914E
S1134800FF90EF9008950097D1F0DC011496ED919C
S1134810FC91159793818281981799F092818581F3
S113482086958923A081B181A80FB11D8C91DB01EC
S11348308C939F5F85819823928380E0089581E023
S1134840089583E008951F920F920FB60F921124DA
S11348500BB60F922F933F934F935F936F937F9376
S11348608F939F93AF93BF93CF93DF93EF93FF9374
S1134870A0911E18B0911F18109711F16091C600F5
S11348801496ED91FC911597938182812581981B53
S113489092238481981761F0838126952823C0810F
S11348A0D181C20FD11D68838F5F95818923838352
S11348B01696ED91FC911797309711F0CD0119954B
S11348C0FF91EF91DF91CF91BF91AF919F918F9124
S11348D07F916F915F914F913F912F910F900BBEFC
S11348E00F900FBE0F901F9018951F920F920FB646
S11348F00F9211240BB60F922F938F939F93AF9324
S1134900BF93EF93FF93E0911E18F0911F18309717
S1134910B9F00280F381E02D938182819817B1F080
S113492092818581282F26952923A081B181A20F08
S1134930B11D2C919F5F892382832093C6000BC0F5
S1134940E1ECF0E080818F7D808305C0E1ECF0E054
S113495080818F7D8083FF91EF91BF91AF919F9173
S11349608F912F910F900BBE0F900FBE0F901F9041
S113497018951F920F920FB60F9211240BB60F9237
S11349802F933F934F935F936F937F938F939F9353
S1134990AF93BF93CF93DF93EF93FF93A09120182E
S11349A0B0912118109711F16091CE001496ED91F9
S11349B0FC911597938182812581981B9223848190
S11349C0981761F0838126952823C081D181C20F75
S11349D0D11D68838F5F9581892383831696ED911A
S11349E0FC911797309711F0CD011995FF91EF9134
S11349F0DF91CF91BF91AF919F918F917F916F91F3
S1134A005F914F913F912F910F900BBE0F900FBE6E
S1134A100F901F9018951F920F920FB60F921124AA
S1134A200BB60F922F938F939F93AF93BF93EF93F4
S1134A30FF93E0912018F09121183097B9F002808B
S1134A40F381E02D938182819817B1F09281858161
S1134A50282F26952923A081B181A20FB11D2C9165
S1134A609F5F892382832093CE000BC0E9ECF0E0A2
S1134A7080818F7D808305C0E9ECF0E080818F7DAB
S1134A808083FF91EF91BF91AF919F918F912F916F
S1134A900F900BBE0F900FBE0F901F9018951F9292
S1134AA00F920FB60F9211240BB60F922F933F93D0
S1134AB04F935F936F937F938F939F93AF93BF9322
S1134AC0CF93DF93EF93FF93A0912218B091231813
S1134AD0109711F16091D6001496ED91FC91159701
S1134AE0938182812581981B92238481981761F098
S1134AF0838126952823C081D181C20FD11D68836B
S1134B008F5F9581892383831696ED91FC91179786
S1134B10309711F0CD011995FF91EF91DF91CF916D
S1134B20BF91AF919F918F917F916F915F914F91C1
S1134B303F912F910F900BBE0F900FBE0F901F90BF
S1134B4018951F920F920FB60F9211240BB60F9265
S1134B502F938F939F93AF93BF93EF93FF93E09122
S1134B602218F09123183097B9F00280F381E02DD8
S1134B70938182819817B1F092818581282F26959F
S1134B802923A081B181A20FB11D2C919F5F89239C
S1134B9082832093D6000BC0E1EDF0E080818F7D0D
S1134BA0808305C0E1EDF0E080818F7D8083FF91FB
S1134BB0EF91BF91AF919F918F912F910F900BBE69
S1134BC00F900FBE0F901F9018951F920F920FB663
S1134BD00F9211240BB60F922F933F934F935F9331
S1134BE06F937F938F939F93AF93BF93CF93DF93F1
S1134BF0EF93FF93A0912418B0912518109711F109
S1134C00609136011496ED91FC9115979381828100
S1134C102581981B92238481981761F083812695BE
S1134C202823C081D181C20FD11D68838F5F9581F4
S1134C30892383831696ED91FC911797309711F091
S1134C40CD011995FF91EF91DF91CF91BF91AF9174
S1134C509F918F917F916F915F914F913F912F9190
S1134C600F900BBE0F900FBE0F901F9018951F92C0
S1134C700F920FB60F9211240BB60F922F938F93AE
S1134C809F93AF93BF93EF93FF93E0912418F09118
S1134C9025183097B9F00280F381E02D9381828149
S1134CA09817B1F092818581282F26952923A08118
S1134CB0B181A20FB11D2C919F5F89238283209320
S1134CC036010BC0E1E3F1E080818F7D808305C074
S1134CD0E1E3F1E080818F7D8083FF91EF91BF91CB
S1134CE0AF919F918F912F910F900BBE0F900FBE9C
S1134CF00F901F901895CF93DF931F92CDB7DEB717
S1134D00BE016F5F7F4F80912618909127187BDD3D
S1134D108111F6CF898190E00F90DF91CF910895B2
S1134D20682F8091261890912718EDDC80E090E0A0
S1134D3008958F929F92AF92CF92EF920F93812C0E
S1134D40912C6894AA24A7F86894CC24C7F8E12C81
S1134D5000E023E040E051EE60E070E02CDC909352
S1134D60271880932618EBE5F8E183E192E091831C
S1134D708083938382830F91EF90CF90AF909F9025
S1134D808F900895E0912918F0912A183097F9F03E
S1134D90A081B1811097D9F02381213069F44C911D
S1134DA021E030E0028002C0220F331F0A94E2F7B0
S1134DB0209524232C930BC04C9121E030E00280F9
S1134DC002C0220F331F0A94E2F7242B2C939093F2
S1134DD02A1880932918009769F010922B182CB583
S1134DE02F732CBDFC0124812CBD85818DBD8CB518
S1134DF080648CBD08954F925F926F927F928F92E0
S1134E009F92AF92BF92CF92DF92EF92FF920F9355
S1134E101F93CF93DF93CDB7DEB7982EB62ED42E43
S1134E20F22E80912818811106C084B1876084B95C
S1134E3081E0809328188CE090E03CD73C01DC01B1
S1134E4011961C930E931296EC9212971396CC9291
S1134E5013978D2D880F880FF82AEB2DF0E0E85D6D
S1134E60F74F8081982A8F2D892914968C93B3E06B
S1134E70BB1518F481E0F3018583A11006C0D301AA
S1134E8019961C921E92189712C06A2D70E084E045
S1134E9090E0F6D62C0161E070E086E090E0F0D678
S1134EA06C014A2DB201B7D4F301D186C0868110BA
S1134EB006C0D30117961C921E92169712C0682D35
S1134EC070E084E090E0DCD65C0161E070E086E0B4
S1134ED090E0D6D66C01482DB5019DD4F301D7825C
S1134EE0C6828C899D89D3011B969C938E931A97B5
S1134EF00115110559F0F801229181E090E002C0FA
S1134F00880F991FEA94E2F7822B80832FB7F894D5
S1134F104091291850912A1870922A1860922918E1
S1134F20D301ED91FC911197309701F113968C9177
S1134F301397813071F4308181E090E012960C90E7
S1134F4002C0880F991F0A94E2F780958323808317
S1134F500DC0308181E090E0D30112960C9002C024
S1134F60880F991F0A94E2F7832B808350932A18A1
S1134F70409329182FBFC301DF91CF911F910F9147
S1134F80FF90EF90DF90CF90BF90AF909F908F9065
S1134F907F906F905F904F9008951F93CF93DF930E
S1134FA0009709F46AC0162FEC018091291890919A
S1134FB02A18C817D90711F0CE01E4DE8FB72FB72E
S1134FC0F89480912B18811131C081E080932B18C3
S1134FD0A0912918B0912A18ED91FC91119730975E
S1134FE0F9F013968C911397813069F4308181E044
S1134FF090E012960C9002C0880F991F0A94E2F771
S1135000832B80830DC0308181E090E012960C9058
S113501002C0880F991F0A94E2F780958323808346
S11350208CB580688CBD1EBD80E025C0EE81FF81FB
S11350303097E1F03481838142819581841B8923F7
S11350403817B1F083814281841B8923381791F08A
S1135050838196959823A081B181A90FB11D1C93DA
S11350608F5F95818923838380E005C082E003C03C
S113507081E001C080E02FBF01C083E0DF91CF91C8
S11350801F9108951F920F920FB60F9211240BB621
S11350900F922F933F934F935F936F937F938F93CD
S11350A09F93AF93BF93CF93DF93EF93FF936EB52B
S11350B0A0912918B0912A181896ED91FC9119978E
S11350C03097A1F0838122819581821B89232481D9
S11350D0821761F0838196959823C081D181C90F8D
S11350E0D11D68838F5F9581892383831696ED9103
S11350F0FC911797309799F093818281981779F0F2
S113510092818581282F26952923A081B181A20F20
S1135110B11D2C919F5F892382832EBD2DC08CB538
S11351208F778CBD10922B18A0912918B0912A1852
S1135130ED91FC9111973097F9F013968C91139798
S1135140813071F4208181E090E012960C9002C0CD
S1135150880F991F0A94E2F78095822380830CC0FC
S1135160208181E090E012960C9002C0880F991F74
S11351700A94E2F7822B80838091291890912A184F
S1135180DC011A96ED91FC911B97309709F0199563
S1135190FF91EF91DF91CF91BF91AF919F918F914B
S11351A07F916F915F914F913F912F910F900BBE23
S11351B00F900FBE0F901F90189590E0FC01EE0F1A
S11351C0FF1FE80FF91FEE0FFF1FE45DF74E238169
S11351D021111FC09C01220F331FF901E80FF91F91
S11351E0EE0FFF1FE45DF74EA081B1814C91F901F0
S11351F0E80FF91FEE0FFF1FE45DF74E81E090E02A
S1135200028002C0880F991F0A94E2F7842B8C93C2
S11352100895FC01EE0FFF1FDF01A80FB91FAA0FAD
S1135220BB1FA45DB74E0D90BC91A02D2C91E80F2F
S1135230F91FEE0FFF1FE45DF74E81E090E002805E
S113524002C0880F991F0A94E2F7809582238C93F9
S1135250089590E0FC01EE0FFF1FE80FF91FEE0F19
S1135260FF1FE45DF74E2381211120C09C01220F12
S1135270331FF901E80FF91FEE0FFF1FE45DF74E2E
S1135280A081B1814C91F901E80FF91FEE0FFF1FC6
S1135290E45DF74E81E090E0028002C0880F991F20
S11352A00A94E2F7809584238C930895FC01EE0F11
S11352B0FF1FDF01A80FB91FAA0FBB1FA45DB74EC4
S11352C00D90BC91A02D2C91E80FF91FEE0FFF1F3C
S11352D0E45DF74E81E090E0028002C0880F991FE0
S11352E00A94E2F7822B8C930895CC24C394D12C96
S11352F06894BB24B2F8CCE2D8E110E08C81813010
S113530081F018F1823061F5E881F9812081C601CC
S11353100A8002C0880F991F0A94E2F782278083CB
S11353201FC08D818F5F863010F48D8319C01D825C
S1135330E881F9812081C6010A8002C0880F991F83
S11353400A94E2F7822780830BC00D81002329F0A1
S1135350812F7FDF01500D8303C0BC82812F2DDF9D
S11353601F5F2696143051F66CE070E080E090E008
S11353700E94D90FC0CFEF92FF920F931F93CF9348
S1135380DF93082F80E487B9CCE2D8E10F2EF8E24E
S1135390EF2EF12CF02DF982E88286E08A831B82BD
S11353A014E01C8380E009DF80E887B9FF82EE8285
S11353B087E0888719861A8781E0FFDE80E283BB55
S11353C084E390E09D878C8785E08E871F86188B09
S11353D082E0F3DE80E18093010182E091E09B8B27
S11353E08A8B1C8B1D8A1E8B83E0E7DEE12CF12C5B
S11353F020E030E040EC50E06FE278E085E799E2AD
S11354000E94D40CDF91CF911F910F91FF90EF90E8
S11354100895CF93DF9390E0FC01EE0FFF1FDF01AF
S1135420A80FB91FAA0FBB1FA45DB74ECD91DC9185
S11354301197488121E030E012960C90129702C037
S1135440220F331F0A94E2F724272883FD0181E009
S11354508483DF91CF910895CF93DF9390E0FC0193
S1135460EE0FFF1FDF01A80FB91FAA0FBB1FA45D1A
S1135470B74ECD91DC911197488121E030E012962E
S11354800C90129702C0220F331F0A94E2F72427CC
S11354902883FD0182E08483DF91CF910895282F32
S11354A030E0F901EE0FFF1FE20FF31FEE0FFF1FB5
S11354B0E45DF74E93E09483CCCE0895282F30E03A
S11354C0F901EE0FFF1FE20FF31FEE0FFF1FE45D64
S11354D0F74E94E0948371CE08958091521881110F
S11354E00CC08CE08093B8008FEF8093BB0084E005
S11354F08093BC0081E0809352180895AF92BF92CC
S1135500CF92DF92EF92FF920F931F93CF93DF938B
S1135510A82EB62E69017A0184E090E0CBD3EC0189
S1135520892B61F1A88281E0B81212C0C701B601CB
S113553020EA36E841E050E079D3DA01C901409726
S1135540A109B109B695A79597958795898311C047
S1135550C701B60120E83AE146E050E067D3DA013A
S1135560C9014097A109B109B695A7959795879563
S113557089831B830A838C2F9D2F02C080E090E0D7
S1135580DF91CF911F910F91FF90EF90DF90CF901B
S1135590BF90AF9008958091BC0081700895FF92F0
S11355A00F931F93CF93DF930097D1F14A30D0F537
S11355B0F42E8B01EC01EFDF811136C08091451888
S11355C090914618C817D90741F087DF89818093E5
S11355D0B800D0934618C093451881E08F0D80938E
S11355E047188881880F80934818FF2089F0F801B4
S11355F0A9E4B8E14FEF4F0D642F70E0CB010196A1
S1135600B801680F791F81918D93E617F707D9F7D1
S113561088EF8093210285EA8093BC0084E005C072
S113562086E003C087E001C082E0DF91CF911F9143
S11356300F91FF9008951F93CF93DF93009729F163
S11356406B3028F5162FEC01A6DF811122C0809162
S1135650451890914618C817D90741F03EDF898153
S11356608093B800D0934618C093451810934718F8
S11356708881880F81608093481888EF8093210285
S113568085EA8093BC0085E005C086E003C087E01E
S113569001C082E0DF91CF911F9108951F920F9274
S11356A00FB60F9211240BB60F922F933F934F9383
S11356B05F936F937F938F939F93AF93BF93EF9376
S11356C0FF93E091B9008E2F90E0FC013897E1350B
S11356D0F10508F075C08827E458FF4F8F4FC8C202
S11356E010924418E091441880914718E81770F418
S11356F081E08E0F80934418F0E0E85BF74E8081E0
S11357008093BB0085E88093BC0072C084E98093D9
S1135710BC008091451890914618DC011296ED91D9
S1135720FC911397309709F463C020E040E050E007
S113573064E019955DC0E091441881E08E0F809378
S113574044188091BB00F0E0E85BF74E80838091C1
S1135750B900803411F4109244182091441830E0B8
S11357608091471890E001972817390724F485ECB5
S11357708093BC003DC085E88093BC0039C0809113
S1135780BB00E0914418F0E0E85BF74E808384E9C5
S11357908093BC008091451890914618DC011296C4
S11357A0ED91FC911397309719F12091471848E433
S11357B058E165E019951CC085EA8093BC0018C0C7
S11357C08091B9008093210284E08093BC00809191
S11357D0451890914618DC011296ED91FC911397AF
S11357E0309731F020E040E050E0609121021995BB
S11357F0FF91EF91BF91AF919F918F917F916F91A5
S11358005F914F913F912F910F900BBE0F900FBE60
S11358100F901F901895FC01411101C06CD3842F87
S113582090E09C012150310982239323892B09F0B4
S113583062D3413808F05FD3128213824483440F49
S1135840415045837183608380E090E0089550580F
S1135850BB27AA270ED04DC13ED130F043D120F052
S113586031F49F3F11F41EF433C10EF4E095E7FBCD
S113587029C1E92F4FD180F3BA1762077307840750
S1135880950718F071F49EF567C10EF4E0950B2EA0
S1135890BA2FA02D0B01B90190010C01CA01A0017E
S11358A01124FF27591B99F0593F50F4503E68F1D9
S11358B01A16F040A22F232F342F4427585FF3CF1A
S11358C0469537952795A795F0405395C9F77EF4EB
S11358D01F16BA0B620B730B840BBAF09150A1F034
S11358E0FF0FBB1F661F771F881FC2F70EC0BA0FBA
S11358F0621F731F841F48F4879577956795B79542
S1135900F7959E3F08F0B3CF9395880F08F0992739
S1135910EE0F9795879508950CD0EBC0E3D040F037
S1135920DAD030F021F45F3F19F0CCC0511115C129
S1135930CFC0F0D098F39923C9F35523B1F3951B45
S1135940550BBB27AA2762177307840738F09F5F9C
S11359505F4F220F331F441FAA1FA9F333D00E2E0B
S11359603AF0E0E830D091505040E695001CCAF778
S113597029D0FE2F27D0660F771F881FBB1F26173D
S113598037074807AB07B0E809F0BB0B802DBF0110
S1135990FF2793585F4F2AF09E3F510568F092C04D
S11359A0DCC05F3FECF3983EDCF386957795679512
S11359B0B795F7959F5FC9F7880F911D96958795C1
S11359C097F90895E1E0660F771F881FBB1F6217E0
S11359D073078407BA0720F0621B730B840BBA0B9E
S11359E0EE1F88F7E095089504D06894B111B5C00E
S11359F0089598D088F09F5790F0B92F9927B75100
S1135A00A0F0D1F0660F771F881F991F1AF0BA957E
S1135A10C9F712C0B13081F09FD0B1E008959CC0A5
S1135A20672F782F8827B85F39F0B93FCCF3869574
S1135A3077956795B395D9F73EF4909580957095D1
S1135A4061957F4F8F4F9F4F0895E89409C097FB4E
S1135A503EF490958095709561957F4F8F4F9F4F41
S1135A609923A9F0F92F96E9BB279395F695879585
S1135A7077956795B795F111F8CFFAF4BB0F11F448
S1135A8060FF1BC06F5F7F4F8F4F9F4F16C08823EF
S1135A9011F096E911C0772321F09EE8872F762F25
S1135AA005C0662371F096E8862F70E060E02AF066
S1135AB09A95660F771F881FDAF7880F9695879552
S1135AC097F9089597F99F6780E870E060E008957A
S1135AD09FEF80EC089500240A9416161706180602
S1135AE00906089500240A941216130614060506DE
S1135AF00895092E0394000C11F4882352F0BB0F6F
S1135B0040F4BF2B11F460FF04C06F5F7F4F8F4FD1
S1135B109F4F089557FD9058440F551F59F05F3F0C
S1135B2071F04795880F97FB991F61F09F3F79F0BB
S1135B3087950895121613061406551FF2CF46953D
S1135B40F1DF08C0161617061806991FF1CF8695BF
S1135B507105610508940895E894BB2766277727A3
S1135B60CB0197F908950BD0C4CFB5DF28F0BADF85
S1135B7018F0952309F0A6CFABCF1124EECFCADFDE
S1135B80A0F3959FD1F3950F50E0551F629FF0014C
S1135B90729FBB27F00DB11D639FAA27F00DB11DA5
S1135BA0AA1F649F6627B00DA11D661F829F22272E
S1135BB0B00DA11D621F739FB00DA11D621F839FB5
S1135BC0A00D611D221F749F3327A00D611D231F8B
S1135BD0849F600D211D822F762F6A2F11249F57D9
S1135BE050408AF0E1F088234AF0EE0FFF1FBB1FFC
S1135BF0661F771F881F91505040A9F79E3F51059B
S1135C0070F060CFAACF5F3FECF3983EDCF386954B
S1135C1077956795B795F795E7959F5FC1F7FE2B45
S1135C20880F911D9695879597F90895A1E21A2EEC
S1135C30AA1BBB1BFD010DC0AA1FBB1FEE1FFF1F2C
S1135C40A217B307E407F50720F0A21BB30BE40B7C
S1135C50F50B661F771F881F991F1A9469F76095C3
S1135C607095809590959B01AC01BD01CF0108957D
S1135C70EE0FFF1F881F8BBF0790F691E02D19943C
S1135C800F931F93CF93DF93869F8001879F100DFF
S1135C90969F100D1124C8010DD0EC01009721F03E
S1135CA0A80160E070E034D1CE01DF91CF911F9163
S1135CB00F9108950F931F93CF93DF938230910533
S1135CC010F482E090E0E0915918F0915A1820E025
S1135CD030E0A0E0B0E0309719F1408151810281B9
S1135CE0138148175907C8F08417950769F410976A
